:100000000C94A4060C94EB060C94EB060C94EB06F3
:100010000C94EB060C94EB060C94EB060C94EB069C
:100020000C94EB060C94EB060C945B270C9497262F
:100030000C94AE1D0C94EB060C94EB060C94EB06A2
:100040000C94EB060C94EB060C94EB060C94EB066C
:100050000C94EB060C94611D0C94EB060C94EB06CF
:100060000C94EB060C94EB060C94EB060C94EB064C
:100070000C94EB060C94EB060C94EB060C94EB063C
:100080000C94EB060C94EB060C94EB060C94EB062C
:100090000C94EB060C94EB060C94EB060C94EB061C
:1000A0000C94EB060C94EB060C94EB065C0C5F0CCA
:1000B0007F0C8E0C950CA00C570D570D570D570D3E
:1000C000570DA30CA50CAA0CD70C010D040D070DA0
:1000D000310D461A461A801A801AD91A801C801CC3
:1000E000801CF51AD31BE41BE41B831F831F961F80
:1000F000961F8C1F961F961F961F831F831F911F8D
:10010000961F961F911F9F24C6247926C624792600
:100110001225352579263626462608000000BE928F
:100120002449123EABAAAA2ABECDCCCC4C3E00003C
:100130000080BEABAAAAAA3E00000000BF000000DB
:10014000803F0000000000084178D3BB4387D113F3
:100150003D190E3CC3BD4282AD2B3E68EC8276BE9B
:10016000D98FE1A93E4C80EFFFBE01C4FF7F3F0065
:10017000000000004E414E494E495459494E46CD6B
:10018000CCCC3D0AD7233C17B7D13877CC2B32954E
:1001900095E6241FB14F0A000020410000C842002C
:1001A000401C4620BCBE4CCA1B0E5AAEC59D7400F6
:1001B000407A10F35A00A0724E18090010A5D4E836
:1001C0000000E87648170000E40B54020000CA9AC9
:1001D0003B000000E1F5050000809698000000401B
:1001E000420F000000A08601000000102700000060
:1001F00000E803000000006400000000000A0000A6
:100200000000000100000000002C76D888DC674F59
:100210000823DFC1DFAE59E1B1B796E5E3E453C689
:100220003AE651997696E8E6C28426EB898C9B6281
:10023000ED407C6FFCEFBC9C9F40F2BAA56FA5F42B
:1002400090055A2AF75C936B6CF9676DC11BFCE053
:10025000E40D47FEF520E6B500D0ED902E030094A6
:100260003577050080841E080000204E0A0000003B
:10027000C80C333333330F986E12831141EF8D2145
:1002800014893BE65516CFFEE6DB18D1844B381BAC
:10029000F77C1D901DA4BBE424203284725E228171
:1002A00000C9F124ECA1E53D2700DA0281FFD9F174
:1002B000DB20A4A62EAF00A0C000A1C800AED58050
:1002C000A81FD300408D1420003F2000CECF00CCCB
:1002D000CD00CACB00C8C9004C41594552008C8D95
:1002E0008E8F00A8A9AAAB0088898A8B00454E434F
:1002F00000DADBDCDD00BABBBCBD00A4A5A6A7000C
:100300008485868700A0A1A2A3008081828300B497
:10031000B5009A9B00BEBF00DEDF00989900B6B71B
:1003200000B8B900D8D900949500D6D700D4D5002C
:100330009697009C9D009E9F00000000000000001A
:1003400000000000000000000000000000000000AD
:10035000000000000000000000000000008080801D
:10036000808080000000000000008080808080800D
:1003700080808080800000000000008080808000FD
:1003800000000000008080808000008080808080ED
:10039000808080808080000000000080808080005D
:1003A000000000000000000000000000000000004D
:1003B000000000000000000000000000000000003D
:1003C000000000000000000000000000000000002D
:1003D0000000000080E070B8DCCCB67BFEFBBBDF29
:1003E000E7CB7EFE000000000000FF000000F808E0
:1003F00008080808F9E1020CF80000FFFFFFFF0001
:100400000000000000FFFFFFFF0000FFFFFFFFC72D
:10041000C7C7C7C7CFFFFFFE7C0000FFFFFFFF007D
:1004200000000000000000000000000000000000CC
:1004300000000000000000000000000000000000BC
:1004400000000000000000000000000000000000AC
:100450000000007FBFBCD3DFDFF7BBBBFC7E7BF7B8
:10046000EFDFBE738E0000000000FF000000E322FB
:10047000222262C20138EC870100001F3F7FFFF893
:10048000F0F0F0F0F8FF7F3F1F0000FFFFFFFFE3F9
:10049000E3E3E3E3F3FFFF7F3E0000FFFFFFFF0026
:1004A000000000000000000000000000000000004C
:1004B000000000000000000000000000000000003C
:1004C000000000000000000000000000000000002C
:1004D0000000000000000000000001010101010017
:1004E0000000010100000000000001010101010005
:1004F00000000001010101010000000000000000F7
:1005000001010101000000000000000101010101E2
:1005100001010101010100000000000101010100D1
:1005200000000000000000000000000000000000CB
:10053000000000000000000000C0C1C2C300B0B154
:10054000B2B3009091929300C4C5C6C700000000EA
:10055000000000000000000000000000000000009B
:10056000000000000000000000000000000000008B
:10057000007E0F00D4FFFFFFC700000078000000DE
:1005800000000000002A2B280000000000000000EE
:10059000000000000000000029000000002C1E34B4
:1005A00020212224342627252E362D3738271E1FBA
:1005B000202122232425263333362E37381F0405E5
:1005C000060708090A0B0C0D0E0F10111213141553
:1005D000161718191A1B1C1D2F3130232D35040531
:1005E000060708090A0B0C0D0E0F10111213141533
:1005F000161718191A1B1C1D2F3130354C53005477
:1006000000550056005F006000610057005C005D0F
:10061000005E005E5D59005A005B005800000062F9
:10062000006342000006003800605D2D00240025B4
:100630000026005F5D21002200230001001E001F34
:100640000020002E000000270037000000010011EC
:100650000016001500010001000100010001000169
:100660000001000100010001000100010000000183
:100670000001000000010001000100010001000173
:1006800000010001000100005C0100010001000107
:100690000001000100000001000100000000AF00A7
:1006A000AE05010980A101850319012AB7001501D2
:1006B00026B700950175108100C0050C0901A10144
:1006C000850419012AA002150126A00295017510C2
:1006D0008100C005010906A1018505050719E0296A
:1006E000E715002501950875018102050719002904
:1006F000EF1500250195F075018102050819012902
:1007000005950575019102950175039101C006607B
:10071000FF0961A1010962150026FF0095207508F7
:1007200081020963150026FF00952075089102C01B
:1007300005010906A101050719E029E715002501B2
:100740009508750181029501750881010507190059
:1007500029FF150026FF0095067508810005081978
:10076000012905950575019102950175039101C057
:1007700009025B00030100A0FA0904000001030163
:100780000100092111010001224000070581030831
:10079000000A090401000203000000092111010000
:1007A0000122220007058203200001070503032020
:1007B00000010904020001030000000921110100E9
:1007C00001226D000705840320000A1201100100B8
:1007D00000000852474252010001020301040330A5
:1007E0000000000A03520075006200690000001258
:1007F0000367007200650067006F00720069006F98
:10080000000000040309040000000000003E5B4FEC
:100810005B3E003E6B4F6B3E001C3E7C3E1C001856
:100820003C7EBC18001C577D571C001C5E7F5E1C64
:100830000000183C180000FFE7C3E7FF0000182481
:10084000180000FFE7DBE7FF0030483A060E0026FD
:100850002979292600407F05050700407F05253FAF
:10086000005A3C663C5A007F3E1C1C0800081C1CB9
:100870003E7F0014227F2214005F5F005F5F00064E
:10088000097F017F00006689956A00606060606092
:100890000094A2FFA2940008047E04080010207EA9
:1008A00020100008082A1C0800081C2A0808001E3E
:1008B00010101010000C1E0C1E0C0030383E38308A
:1008C00000060E3E0E060000000000000000005E64
:1008D000000000000600060000143E143E14002430
:1008E0002A7F2A1200261608343200364A56205033
:1008F00000000A06000000003C4200000000004228
:100900003C000014083E08140008083E08080000D7
:10091000A0600000000808080808000000606000EF
:10092000002010080402003E4141413E0000427F89
:10093000400000724949494600214145453B003885
:1009400026217F20002F49494931003E494949313C
:10095000000101611907003649494936004E5151DD
:10096000513E000000140000000040340000000070
:100970000814220000141414141400000022140897
:10098000000004520A04003E415D594E007E0909F0
:10099000097E007F49494936003E41414122007F9E
:1009A0004141413E007F49494941007F0909090110
:1009B000003E4149493A007F0808087F0000007F57
:1009C0000000002041413F00007F08142241007FC9
:1009D00040404040007F0204027F007F0204087F05
:1009E000003E4141413E007F09090906003E415158
:1009F000215E007F09192946002649494932000134
:100A0000017F0101003F4040403F001F2040201F68
:100A1000003F4038403F006314081463000708702B
:100A2000080700615149454300007F414100000231
:100A30000408102000000041417F0004020102046C
:100A4000004040404040000000060A00002054548E
:100A50005478007E484848300030484848480030C4
:100A60004848487E0038545454580000087C0A0016
:100A70000098A4A4A478007E080808700000007AFA
:100A80000000002040403A00007E10284400000092
:100A9000007E4000007C04780478007C0404047824
:100AA00000384444443800FC24242418001824242A
:100AB00024FC007C0804040800485454542400001A
:100AC000047E4400003C4040207C001C2040201C50
:100AD000003C4030403C004428102844005CA0A06A
:100AE000A07C004464544C440000083641000000DF
:100AF00000FF00000000413608000002010204026D
:100B0000003C2623263C007EFF81FBF7EF81FFC1DE
:100B1000BFBFBFC1FF81FBF7FB81FF7E0000007EEE
:100B2000FFC3BDBDBDDBFF83EDEDED83FF81EDEDCB
:100B3000EDF3FF7E0000007EFFE1DFBFDFE1FFC3DA
:100B4000BDBDBDC3FF81BFBFBFBFFF7E0000007E34
:100B5000FF81B5B5B5CBFF81EDCDADB3FFFDFD8117
:100B6000FDFDFF7E0000007EFFC3BDBDBDDBFF833A
:100B7000EDEDED83FF81BFBFBFBFFF7E0000000032
:100B8000000008083E0808000000000000000808F7
:100B90000808080000000000003E6F5F637B7B3E9A
:100BA00000000000003E7F596F777B3E0000000090
:100BB000000014083E0814000000000000000808AF
:100BC0002A08080000000000007E0408107E003E95
:100BD0004040403E007E0408047E0000000000000B
:100BE000003C42424224007C1212127C007E12120F
:100BF000120C00000000007EFF81FBE7FB81FF81FB
:100C0000B5B5B5BDFF81BDBDBDC3FF7E0000007E93
:100C1000FF81B5B5B5CBFF81EFF7EB9DFF81BFBF7E
:100C2000BFBFFF7E0000007EFF81EDEDEDF3FF838F
:100C3000EDEDED83FF81BDBDBDC3FF7E0000000073
:100C4000003E776F777B773E0000000000000810C1
:100C50000804080000000000003E77775577773ED3
:100C60000000007EFFB3ADADADDBFFC3BDBDBDDB9E
:100C7000FF81EDCDADB3FF7E00000000000010202D
:100C80001C04040000000000003C42424224007C9E
:100C90001212127C007E4040404000000000000024
:100CA000007E1212120C007C1212127C007E424254
:100CB000423C00000000007EFFC3BDBDBDC3FF7EFF
:100CC0000000007EFFFFBB81BFFFFF7E0000007EB3
:100CD000FF9BADADADB3FF7E0000007EFFDDBDB577
:100CE000B5C9FF7E0000007EFFE7EBED81FFFF7ED0
:100CF0000000007EFFD1B5B5B5CDFF7E000000003D
:100D0000003E77774177773E00000000003E77771E
:100D10007777773E00000000003E6B7741776B3EAF
:100D200000000000004C52525224003C4242422437
:100D3000007E1232524C000000000000000000262D
:100D4000100804000000000011241FBECFEFDAE0FD
:100D5000DEBFCDBF04B603FE27C080910905909188
:100D60000A05A0910B05B0910C058730904BA74068
:100D7000B04BD1F41092090510920A0510920B05A0
:100D800010920C0514BE84B7877F84BF0FB6F89409
:100D9000A895809160008861809360001092600047
:100DA0000FBEE0E0F8E3099525E0A0EBB1E001C05B
:100DB0001D92A930B207E1F711E0A0E0B1E0E4E450
:100DC000F7E602C005900D92A03BB107D9F70E944B
:100DD000ED060C94A0330C940000CF93DF93CDB7B5
:100DE000DEB7AC970FB6F894DEBF0FBECDBF84B7A9
:100DF000877F84BF0FB6F894A895809160008861C2
:100E000080936000109260000FBE90E080E80FB603
:100E1000F89480936100909361000FBE85B780685D
:100E200085BF85B7806885BF80EC9CE19093B10158
:100E30008093B0010E94DB260E94FA268091E20096
:100E400084608093E20078948091EE028823A1F080
:100E50001091E9001F709091EC00892F817090FD36
:100E600080E8182B1092E9008091E80083FD0E9431
:100E7000B9231F701093E90082E084BD93E095BD13
:100E80009AEF97BD80936E0080EF0E94BD1181EFB5
:100E90000E94BD1184EF0E94BD1185EF0E94BD111B
:100EA00086EF0E94BD1183E30E94BD1182E30E9480
:100EB000BD1181E30E94BD1187EF0E94BD11E4EBDB
:100EC000F1E089EB91E0AFE0B2E011921D928E1754
:100ED0009F07D9F780E090E00E947E308A3E9E4FC7
:100EE00011F00E94451E82E090E00E9476308093CF
:100EF00009020E94341E9093B3018093B2010E94B4
:100F000028168FE39CE90197F1F700C000000E94CA
:100F1000281680910F0280FF17C06FEF83E290E0E8
:100F20000E9484306FEF84E290E00E9484306FEF83
:100F300085E290E00E9484306FEF7FEF80E090E0E8
:100F40000E94A2300E943D1D83E090E00E94763016
:100F5000682F70E080E090E00E945C2083E290E0E7
:100F60000E947630813281F484E290E00E947630F3
:100F7000873051F485E290E00E94763091E086302F
:100F800009F090E0892F01C080E080FFD8C50E9461
:100F9000A21D9093DB018093DA010E94A21D909321
:100FA000DF018093DE011092000280E88093FC0252
:100FB0000E94A02A6DE070E08CEB92E00E94722308
:100FC000892B89F58091000263E070E081FD28C0E3
:100FD00089EB92E00E947223892B29F56DE070E085
:100FE00089EA92E00E947223892BE9F40E94961DFF
:100FF000DC01CB01805A9541AF4FBF4F8093020275
:1010000090930302A0930402B09305020E94F4108F
:1010100081E080930702809306021092010203C0D0
:1010200086EB92E0D7CF57985F9A56985E9A89B12F
:1010300090E0880F892F881F990B4E9B02C022E0F9
:1010400001C020E0822B8093BC0188E091E0909366
:10105000BF018093BE01CC24C394D12C8091EE02B9
:10106000853009F04AC000E112E18091EE0285303E
:1010700009F03DC08091EE02843039F180E00E9499
:1010800050131092B901A8E1B0E0E0E40FB6F89473
:10109000A895A09360000FBEE093600083B7817FA6
:1010A000846083BF83B7816083BF7894889583B75A
:1010B0008E7F83BF0FB6F894A895809160008861F9
:1010C00080936000109260000FBE8091ED02882333
:1010D00009F4CBCF0E942816EFE0F2E08191811154
:1010E0000FC524E132E02E173F07C1F7BECF0E94A3
:1010F0008B220E9489100E9450130E942816A82E4D
:1011000081110E94961DAAE0B2E0EFE0F2E000E05B
:1011100010E0302F21919D919227A9F180E0FF24CA
:10112000F394492F4F2159F189A33AA32F2181E04C
:1011300009F480E08BA30E94A21D8160782F9DA3FB
:101140008CA349A15AA16BA18DA10E94BF0FF801E8
:10115000E65FFD4F8081F826F0828091BC01E82F88
:10116000EE0FEE0FE093BC0129B130E0220F232FE8
:10117000221F330B4E9B1EC082E090E01DC08F5F8C
:10118000FF0C843071F60F5F1F4F0530110509F019
:10119000C0CF8FEF8EA38FA318A60E94A21D8160DF
:1011A000782F9AA789A74EA15FA168A58AA50E945A
:1011B000BF0FD3CF80E090E0822B932B8E2B8093B8
:1011C000BC018F70E82FF0E0E35EFE4F90818091CC
:1011D000BB01890F8093BB01843064F08091BA0118
:1011E0008F5F8093BA0160E080E00E948514BB2489
:1011F000B39401C0B12C8091BB018D3F5CF4809110
:10120000BA0181508093BA0161E080E00E948514A8
:10121000BB24B3948091BB01082E000C990B64E0B1
:1012200070E00E945B338093BB01B1100E94961D59
:1012300080910702882309F4E5C260E080E00E9403
:10124000DD108091DE019091DF010E94871D829761
:1012500008F4AFC10E94F4100E94A21D9093DF0118
:101260008093DE018091DC01882309F456C110913E
:10127000DD0111117DC00E9493150E94951060E060
:101280008F500E94DD1088ED92E00E944C23609107
:10129000F8027091F9028091FA029091FB020E948B
:1012A0005613813059F038F0823059F0833061F4B0
:1012B0008CEC92E00BC085ED92E008C082ED92E0EC
:1012C00005C08FEC92E002C089EC92E00E944C23B2
:1012D0000E94951060E087500E94DD108DEE92E034
:1012E0000E944C238091BD01813029F0823031F081
:1012F00088EE92E005C083EE92E002C08EED92E0AF
:101300000E944C23E091BE01F091BF01309729F07B
:101310000190F081E02D0995182F10FBFF24F0F8C3
:1013200011FB002700F912FB112710F90E949510FC
:1013300063E08C500E94DD10FF2019F08AE093E0FA
:1013400002C085E093E00E944C23002319F080E066
:1013500093E002C08BEF92E00E944C23112319F01E
:1013600086EF92E002C081EF92E00E944C2321C1FF
:10137000113009F0C7C00E9493158091DD018130C2
:1013800009F017C16091F8027091F9028091FA0298
:101390009091FB020E945613813009F04FC00E94C9
:1013A000951060E088500E94DD10809100018F321E
:1013B00079F168F48B3291F08D32F9F08A3279F557
:1013C00086E393E00E944C2384E293E02EC08E36A5
:1013D00011F128F182578230F0F021C086E393E0CA
:1013E0000E944C2383E393E00E944C2380E393E02C
:1013F0000E944C238DE293E05EC086E393E00E945E
:101400004C2383E393E00E944C238AE293E011C0D3
:1014100081E293E006C082E00E943B204EC086E35A
:1014200093E00E944C2383E393E00E944C2380E3EB
:1014300093E00E944C2387E293E03DC08230E9F5BF
:101440000E94951060E086500E94DD10809100019E
:101450008F3289F038F48A3220F18C3260F08D328C
:1014600051F01FC0823791F0833749F08E36C9F4AE
:101470008FE093E018C082E00E94F91F1EC08EE149
:1014800093E00E944C238BE193E011C08EE193E046
:101490000E944C2385E193E00E944C2382E193E07B
:1014A0000AC08EE193E00E944C2385E193E00E9404
:1014B0004C2388E193E00E944C230E949510E0ECBD
:1014C000F1E001900020E9F73197E05CF14062E043
:1014D0008E1B0E94DD1080EC91E00E945A230E9436
:1014E0009510EDECF1E001900020E9F73197ED5C0B
:1014F000F14063E08E1B0E94DD108DEC91E00E94B4
:101500005A2357C0123009F054C080910602882334
:1015100009F44FC00E949D104CC080910505909128
:1015200006058F5F92409C013E5F2130324028F0DB
:1015300020E032E0281B390B02C020E032E060914D
:10154000FD027091FE02DC01A150BD4FAC01280FDD
:10155000391F42175307E0F4FA01E81BF90BE75C67
:10156000FC4FE491FC91EF1779F0EC93FA0115E050
:10157000F695E7951A95E1F7860102C0000F111F55
:10158000EA95E2F7602B712B4F5F5F4F1196E1CF29
:101590007093FE026093FD028091DA019091DB016D
:1015A0000E94871D21E0893B9B4008F420E02093A6
:1015B000DC014090F8025090F9026090FA027090BD
:1015C000FB02C301B2010E945613813011F481E085
:1015D00015C0823081F4411451046104710441F05A
:1015E000D301C201B695A7959795879580FDEFCF5A
:1015F0001092DD0105C08330D9F782E08093DD01D0
:1016000080910702882309F4E2C02091FD02309105
:10161000FE022115310509F4DAC080910102811121
:10162000D6C0282E312C7601082E02C0EE0CFF1CED
:101630000A94E2F7A9014E215F21452B11F48F5F37
:10164000F0CF90910002910165E0220F331F6A955F
:10165000E1F790FD12C08295880F80768093030198
:10166000220F232F221F330B319520930601815E19
:10167000809304011092070112C045E0369527952A
:101680004A95E1F7220F220F220F209303011092B7
:101690000601295F2093040183E08093070124E67B
:1016A00030E047E050E061E071E088E70E942D2BD8
:1016B000892B09F08CC08091000280FD23C0C101FC
:1016C00025E0880F991F2A95E1F7AC0141505D4F45
:1016D00004E610E020E230E060E488E70E94542B4A
:1016E000892B09F074C00E94B710E094F0948091A7
:1016F000FD029091FE02E822F922F092FE02E092B1
:10170000FD0265C080E2E0EEF1E0DF011D928A9506
:10171000E9F795E0220C331C9A95E1F7E1E3F1E05B
:10172000FCA7EBA74DE251E0ABA5BCA58D91BCA7F2
:10173000ABA7FA019191AF019101290F311D8901E8
:1017400001501D4F280190E080529E4FFC0107E0A0
:101750009F01281B390B8C2C01C0880C2A95EAF7B5
:10176000B201912CDB011D91BD011821202F2919F7
:101770002770722E022E000C330BB12F01C0BB0F4D
:101780007A94EAF77B2E319521953109277033271A
:1017900001C016952A95EAF7712A1081712A708284
:1017A000939418E09112DECF015031960F3F81F6ED
:1017B00025E331E06BA57CA52617370709F0B4CFE8
:1017C00004E610E020E230E040EE51E085CF809169
:1017D00006028823B9F00E94961D00910202109122
:1017E00003022091040230910502DC01CB01801B31
:1017F000910BA20BB30B8F3F9F4FAF4FBF4710F41E
:101800000E949D10A11001C0B1100E94B7100E944B
:10181000891090910802891731F00E9489108093F5
:1018200008020E9450138091EE02843009F016CC19
:1018300083E08093E9008091E80082FF0FCC8091E3
:10184000E80085FF23C00E94302881111DC080E27E
:10185000E82EF12C8E010F5F1F4F09C08091F1001F
:10186000D8018D938D01B1E0EB1AF10869F08091F8
:10187000E80085FDF3CF8091E8008B778093E80046
:101880000E943028882399F391E001C090E0809174
:10189000E8008B778093E800992309F4DFCBE98196
:1018A0008E2F90E0FC013197E331F10508F0FFC085
:1018B000EA5AFF4F0C946F331A8289E049C08A813B
:1018C000823009F433C1833051F0813009F0EFC028
:1018D0000E94961D9B838C837D836E83EAC08091DA
:1018E0000F028B83809110028C83809111028D8373
:1018F000809112028E83809113028F83DAC08A81D5
:10190000823009F0D4C06B817C818D819E810E94E0
:10191000753386E290E00E948430CBC04C816B81AD
:101920008A810E9482119D8308C12D813E813227C8
:10193000232732274C816B818A810E941911B9C0FB
:101940000E944311B6C080E160C083E08A8389E3CE
:101950008B83AFC00A811B81102701271027AC8021
:10196000B12CEDE1AE16B10408F0A3C09E012F5FCB
:101970003F4F49017901C80189539F4F97012819A9
:1019800039092A153B0508F094C0093333E01307E1
:1019900030F40E947630D70114968C9302C0F70180
:1019A00014820F5F1F4FFFEFEF1AFF0AE4CF0A8187
:1019B0001B81102701271027EC80F12C2DE1E21666
:1019C000F10408F076C0BE016F5F7F4F4B015B01F1
:1019D000C80189539F4F9501281939092E153F05D4
:1019E00008F067C0093373E0170728F4D50114968F
:1019F0006C910E9484300F5F1F4FBFEFAB1ABB0A80
:101A0000E7CF0E94091155C084E08A8352C00A8141
:101A10001B81102701271027AC80B12CEDE1AE16F9
:101A2000B10408F046C09E012F5F3F4F4901790184
:101A3000C80187969701281939092A153B05C8F569
:101A4000003A110530F40E947630D70114968C9339
:101A500002C0F70114820F5F1F4FFFEFEF1AFF0A5A
:101A6000E7CF0A811B81102701271027EC80F12C7A
:101A70002DE1E216F104E8F4BE016F5F7F4F4B01E8
:101A80005B01C80187969501281939092E153F0574
:101A900080F4003A110528F4D50114966C910E9447
:101AA00084300F5F1F4FBFEFAB1ABB0AEACF8FEF37
:101AB00089838091EE02843009F0D0CA1091E90048
:101AC0001F709091EC00892F817090FD80E8182B99
:101AD00082E08093E9008091E80080FF0DC040E043
:101AE00050E060E270E0CE0101960E946328809190
:101AF000E8008E778093E8001F701093E900AECA6B
:101B000009BD19BD09B400FEFDCF8091D8008F7DBD
:101B10008093D8008091E00082608093E000809103
:101B2000E00081FDFCCF0E948B229FCA86E290E0FC
:101B30000E9476301B821C821D828E83BACF60E0A9
:101B400086E290E00E9484300E9443110E940911B5
:101B500061E283E290E00E94843067E084E290E0FA
:101B60000E94843066E085E290E00E9484300FCAD3
:101B70009091B20192FF0DC0282F2871283019F4DE
:101B8000877F846006C0282F2471243011F48B7F56
:101B9000886093FF0DC0282F2871283119F4877EA3
:101BA000846106C0282F2471243111F48B7E886152
:101BB0002091B30120FF0DC0382F3871383019F44F
:101BC000877F816006C0382F3171313011F48E7FEC
:101BD000886021FF0DC0282F2871283119F4877ED5
:101BE000816106C0282F2171213111F48E7E886118
:101BF00094FD877E08959C013A9521153F4138F563
:101C0000DC01AA27B270AC01442754709C01222742
:101C1000387094FF0FC090FF02C080E101C080E0E7
:101C2000AB2B09F08062452B09F08064232B69F00F
:101C300080680BC0892F8170AB2B09F08260452B27
:101C400009F08460232B09F08860FB010994089552
:101C500080914902813029F080912E02882309F475
:101C600046C06CE372E084E192E00E948933809187
:101C70003C02811104C080912F02882391F1E4E19C
:101C8000F2E001900020E9F73197E451F2408091B1
:101C900012019EE8980FFF27923030F08E3621F027
:101CA000DF01AC5EBD4F8C93EC5EFD4F1182209145
:101CB0002E022223B1F09230A0F08E3691F0E4E1B2
:101CC000F2E001900020E9F741E252E04E1B5F0B89
:101CD0006FE272E084E192E00E94903380E28093B0
:101CE000120164E172E080EC91E00E9489338091FE
:101CF00012018093000161E272E08DEC91E00C949E
:101D00008933CF92DF92EF92FF920F931F93CF937D
:101D1000DF93809112018D32C1F1D8F48A3209F437
:101D200049C08B3209F075C060E070E08CE392E04E
:101D30000E94A52B6B017C0160E070E08FE292E0D5
:101D40000E94A52B9B01AC01C701B6010E940A317C
:101D50005DC0823709F44CC0833709F440C08F322C
:101D600009F057C060E070E08CE392E00E94A52B80
:101D70006B017C0160E070E08FE292E00E94A52B95
:101D80009B01AC01C701B6013FC060E070E08CE38D
:101D900092E00E94A52B6B017C0160E070E08FE275
:101DA00092E00E94A52B9B01AC01C701B6010E94E5
:101DB00009312CC060E070E08CE392E00E94A52B1A
:101DC0006B017C0160E070E08FE292E00E94A52B45
:101DD0009B01AC01C701B6010E94832D17C060E0D2
:101DE00070E08CE392E00E94A52B0E94CD320EC0E1
:101DF00060E070E08CE392E00E94A52B9B01AC01B7
:101E000060E070E080E89FE30E948D316B017C010F
:101E100003C0C12CD12C7601C701B6010E946F32DC
:101E20000E9476310E94FF312BE0261B283008F0FB
:101E300027E001E212E04CE0C701B6010E94852BC9
:101E4000F80101900020E9F73197E152F24080E07B
:101E5000282F30E02E173F0740F4D901AF5DBD4F6A
:101E60009C919E3261F08F5FF3CF8DE008C0AE2F62
:101E7000B0E0AF5DBD4F9C91903329F41C92E150CE
:101E8000E817A8F702C09E32C9F3E1E2F2E0019040
:101E90000020E9F73197E152F24080E0482F50E00E
:101EA0004E175F0730F4DA01AF5DBD4F9C91903261
:101EB00021F020E0A1E2B2E002C08F5FEFCFFD0190
:101EC00001900020E9F73197E152F240E41BF50B55
:101ED000822F90E08E179F0750F4EC01CF5DDD4F0D
:101EE000FE01E40FF51F308138832F5FE8CFEF5DEF
:101EF000FD4F10820E94280E61E272E08CE392E0B6
:101F00000E94893310922F02DF91CF911F910F9180
:101F1000FF90EF90DF90CF9008958091DD018130A8
:101F200031F482E00E94F91F80E090E008958091F2
:101F3000BD01813029F0823031F48EEB90E00895BC
:101F40008CEA90E008958AEA90E008958091DD019E
:101F5000813031F482E00E943B2080E090E00895DF
:101F60008091BD01813029F0823031F48DEB90E019
:101F700008958BEA90E0089589EA90E008951F9310
:101F8000CF93DF93CDB7DEB767970FB6F894DEBF78
:101F90000FBECDBF342F4B8B252F5C8B6D8B7E8B73
:101FA0008F8B4E895F8961111092BE0286E0FE011F
:101FB0003D96DF01982F1D929A95E9F73D872E8770
:101FC0006F87598B488BDE01179601900D928A9589
:101FD000E1F7CE0107960E94DC2081113EC086E029
:101FE000FE013796DE01119601900D928A95E1F778
:101FF000FF81E8856A857B856115710531F0EF3FCA
:1020000031F481E0FF3F19F403C081E001C080E0BA
:1020100080FD23C020917B0230E0C90101968770CA
:1020200099274091AC0250E08417950779F1F98324
:10203000EA837D836C8396E0929FD001939FB00DDD
:102040001124A458BD4FFE01319601900D929A952E
:10205000E1F780937B020E94662016E08091AC023B
:1020600090917B028917F9F0189FC00111248458C0
:102070009D4F0E94DC208823B1F08091AC0290E05B
:102080000196877099278093AC02E8CF0E948B223B
:1020900010927B021092AC02E5E7F2E086E0DF01ED
:1020A0001D928A95E9F767960FB6F894DEBF0FBECA
:1020B000CDBFDF91CF911F910895209151023091B2
:1020C00052022817390771F09093520280935102FF
:1020D000E091BE01F091BF01309721F00084F185BD
:1020E000E02D0994089520914F0230915002281755
:1020F000390771F09093500280934F02E091BE0136
:10210000F091BF01309721F00680F781E02D09940E
:102110000895E091BE01F091BF01309721F0019048
:10212000F081E02D099480E008958091000280FF05
:1021300002C085E0089585E108958091070290919D
:102140000602882389F0992369F062E070E08FE944
:1021500096E00E947223892B19F08091060208955F
:10216000109206029091060281E0892708958091DD
:1021700007028823F9F00E94961DDC01CB01805AEA
:102180009541AF4FBF4F8093020290930302A093FB
:102190000402B09305028091060281110BC062E037
:1021A00070E08DE996E00E947223892B19F481E09A
:1021B000809306028091060208952091FC0236E089
:1021C000839FC0011124629F800D911D11248115F0
:1021D00022E0920714F080E090E081509D4F9093B0
:1021E0000605809305050895EFEFF2E080E092E0A8
:1021F000DF019C011D9221503040E1F7F09306056C
:10220000E09305058FEF9FEF9093FE028093FD0210
:102210000895CF93DF93C7ECD0E060E0CE010E9439
:1022200084302196C11584E0D807B9F7DF91CF91AA
:1022300008951F93CF93DF93962F843000F5653078
:10224000F0F44430E0F4632F122FC42FD0E0CC0F11
:10225000DD1F28E0929FC00DD11D112498E2899FB7
:10226000C00DD11D1124CE0187960E948430612FAC
:10227000CE018896DF91CF911F910C948430DF912D
:10228000CF911F910895AF92BF92CF92DF92EF92BC
:10229000FF920F931F93CF93DF93A12CE12CF12C8E
:1022A000B12C00E010E0C0E0D0E06701C00ED11E0C
:1022B000F601EC0FFD1FEE0FFF1FE350FA4F2591C3
:1022C00034914C2F6B2D8A2D0E9419112196C43008
:1022D000D10571F70C5F1F4FB39485E0B812E3CFBF
:1022E00084E1E80EF11CA39484E0A812D9CFDF9119
:1022F000CF911F910F91FF90EF90DF90CF90BF9003
:10230000AF9008950F931F93CF93DF93843008F518
:102310006530F8F44430E8F4C42FD0E0CC0FDD1F72
:1023200028E0629FC00DD11D112438E2839FC00DAB
:10233000D11D1124CE0187960E94763090E0182F8F
:102340000027CE0188960E9476309801282BC9017B
:1023500002C080E090E0DF91CF911F910F9108952E
:10236000462F843038F4753028F4643018F4672F21
:102370000C94821180E090E00895F894E82FE295A3
:10238000EF70F0E031A1282F2F7081E090E001C0C4
:10239000880F2A95EAF7982F9095932391A392A1FD
:1023A000892B82A378940895CF93DF930E94B01174
:1023B000EC018238910559F1A0F48133910509F4BB
:1023C00073C040F48932910509F467C08A9709F413
:1023D00072C084C08533910509F458C0C997B9F01B
:1023E0007DC0833E910571F138F4803E9105B1F0D6
:1023F000823E910511F172C0863E9105B9F1873E8A
:102400009105C9F1843E910509F068C024C080910E
:10241000B20180FD5DC081FD5BC060C08091B201F2
:1024200080FD50C08091B30180FF36C18091B20120
:1024300084FD30C1C3EED0E02FC18091B20182FF94
:102440002BC1F4CF8091B20182FD3FC08091B301D6
:1024500080FD3EC0EBCF8091B30181FF1DC1809113
:10246000B20184FD17C1C7EED0E016C18091B20160
:1024700083FF12C1F4CF8091B20183FD2CC0809103
:10248000B30181FFECCFC4EED0E006C18091B20170
:1024900085FF02C1C9E2D0E0FFC08091B20185FF93
:1024A000FBC0C5E3D0E0F8C08091B20186FFF4C064
:1024B000CAE2D0E0F1C08091B20186FFEDC0C1E375
:1024C000D0E0EAC0C9E3D0E0E7C0C2EED0E0E4C0AB
:1024D000C0EED0E0E1C0C6EED0E0DEC0C11582E5BE
:1024E000D80708F066C0C11591E5D90728F0DC2FA0
:1024F000CC27C16FD06AD0C0C83ED10560F5C03EC0
:10250000D10508F0C9C0C83AD105B0F4C53AD10523
:1025100040F0C55AD0E0C258DE4FC881D0E0D06448
:10252000BBC0C130D10509F4B7C008F4B3C0C43092
:10253000D10508F4AFC0B0C0CF3BD10508F0AAC0A8
:10254000C85AD0E0CC0FDD1FCF57DE4F0990D8819D
:10255000C02DD464A1C0C11520E5D207E0F0CE01A2
:1025600074E0969587957A95E1F783709C2F937028
:1025700021E030E002C0220F331F9A95E2F73C6859
:10258000382BCF70C695C69580E2C89FE001112414
:10259000C22BD32B81C0C11580E4D80718F0DF709F
:1025A000D06A7AC0CE019A9581159F4108F474C013
:1025B00071C0C11586E5D807F0F5C11595E5D907B5
:1025C00050F08C2F0E94B80D8F71C82FD0E0DC2FF7
:1025D000CC27D06261C0C11524E5D20728F0DC2FDA
:1025E000CC27C46FD06A58C09E01237033278C2F2C
:1025F00086958695C115D34578F4C1E0D0E002C038
:10260000CC0FDD1F2A95E2F720E2829FC001112442
:10261000C82BD92BDC6840C0C1E0D0E002C0CC0F91
:10262000DD1F2A95E2F720E2829FC0011124C82B0A
:10263000D92BDA6831C0C1152AE5D207E8F4C115F3
:1026400089E5D80780F08C2F8F700E94B80D94E038
:10265000D695C7959A95E1F7CF70D0E0DC2FCC27BF
:10266000D069C82B19C0C11598E5D90798F0DC2F9F
:10267000CC27C06FD06A10C0CE0190568115904211
:1026800048F48D2F8F710E94B80DDD27D0628F71B5
:10269000D82B02C0C0E0D0E0CE01DF91CF910895E9
:1026A00080FF02C0469A089546980895CF92DF921F
:1026B000EF92FF926C01EE24FF24C114D104E104D7
:1026C000F10421F0C701B60120E101C020E0C72ECE
:1026D000D82EE92EFF24C114D104E104F10419F02D
:1026E000285FC701B6016B017C0154E0F694E794C2
:1026F000D794C7945A95D1F7C114D104E104F104D9
:1027000019F02C5FC701B6016B017C0142E0F69421
:10271000E794D794C7944A95D1F7C114D104E10442
:10272000F10419F02E5FC701B601DC01CB01B695AB
:10273000A79597958795892B8A2B8B2B09F02F5F6F
:10274000822FFF90EF90DF90CF900895AF92BF92CD
:10275000CF92DF92EF92FF920F931F93CF93DF936D
:10276000EC018AE0A82E2881222309F497C02130A9
:1027700009F041C08981813039F48E010E5F1F4F0D
:102780008A810E94D02908C0823041F48E010E5FF8
:102790001F4F8A810E941529E8017EC0833039F4D9
:1027A0008E010E5F1F4F8A810E94B928F5CF8430B9
:1027B00011F0219671C02A81229680E090E030E0ED
:1027C000205331092A30310558F4A89EA001A99E52
:1027D000500D1124C901840F951F21962881EFCF38
:1027E000009709F459C0EFE9FFE03197F1F700C015
:1027F00000000197F5CFE22FF0E0E358FA4FB490D4
:10280000822F86958695869590E0FC01E359FA4FD4
:10281000E4902770F12C022E02C0F594E7940A94FC
:10282000E2F7F1E0EF22FF24FC01E35AFA4FC490F3
:10283000D12C022E02C0D594C7940A94E2F731E05D
:10284000C322DD24FC01E35BFA4F049110E002C0D7
:10285000159507952A95E2F701701127E114F10407
:1028600019F081EE0E941529C114D10419F086EEE9
:102870000E9415298B2D0E94D029CD2819F086EEB3
:102880000E94B928EF2819F081EE0E94B928012B87
:1028900019F08CE20E94D029219665CFDF91CF916B
:1028A0001F910F91FF90EF90DF90CF90BF90AF906E
:1028B0000895CF93DF93EC010E94B928CE01805E8A
:1028C0009109089710F0209719F464EA78E202C0A1
:1028D0006FE878E2CE01DF91CF910C94FB0DCF939E
:1028E000DF93EC01805E9109089710F0209719F4AE
:1028F0006FEA78E202C06AE978E2CE010E94FB0D3D
:102900008C2FDF91CF910C941529CF93DF938111F8
:1029100041C0C62F6091F8027091F9028091FA02CD
:102920009091FB020E945613811110C0CC2319F024
:102930000E94A60F02C00E948D0FEC01009751F17A
:102940000E946F14CE010E94591424C08091DD01B1
:10295000CC2381F0813019F40E94A60F1BC0811195
:1029600019C08091BD0190E0019663E070E00E9483
:102970005B330EC0813019F40E948D0F0BC08111A2
:1029800009C08091BD01811102C082E001C0815067
:102990008093BD0181E0DF91CF910895CF93C82F3F
:1029A00030914902313019F46FE272E002C06CE3F9
:1029B00072E0FB0101900020E9F73197CF01861BFF
:1029C000970B282F40ED4C0F4A3010F0CE32C9F44F
:1029D00080912E02882361F010922E0210924902FB
:1029E00010923C0210922F0220E06CE372E003C0D0
:1029F0002C3008F096C0FB01E20FF11DC08311825C
:102A000007C0C83761F4FB01E80FF11D3197108250
:102A100081E292E00E948933CF910C94280EC33654
:102A200069F4FB01108210923C0210922F0280E2A6
:102A30008093120181E080932E02EACFCE3649F5D1
:102A4000882309F452C0FB0130813D3259F481E002
:102A5000FB01E80FF11D9081319790838F5F28175C
:102A6000B8F713C08C3088F440E050E09927FC019F
:102A7000E41BF50BE60FF71F308131834F5F5F4F8B
:102A80002417A8F78DE2FB0180838EE68093120164
:102A9000BFCF8C2F8D7F8D3221F086ED8C0F823051
:102AA000E8F4311106C0C093120181E0809349021D
:102AB000B3CF80912E02882339F0C0931201109277
:102AC0002E0210922F02A8CF80912F0281110E9416
:102AD000810E10922F02C09312019ECFCD3329F4A4
:102AE0003130F9F430932E0219C08EE88C0F823009
:102AF000C0F4313051F480912E02811106C06FE292
:102B000072E08CE392E00E94893381E08093490275
:102B100010922F02C093120180932E02CF910C9439
:102B2000810ECF9108958091DD0160E0813071F4D4
:102B300080E00E94DD1088E495E00E944C2361E073
:102B400080E00E94DD1083E495E00DC080E00E94EB
:102B5000DD108EE395E00E944C2361E080E00E944E
:102B6000DD1089E395E00C944C230F931F93CF93D2
:102B7000DF93C42FD22FFC0182818823C9F04093B8
:102B800053020E94A21D90934E0280934D0280E258
:102B90008C0F883008F057C0C77081E001C0880FE3
:102BA000CA95EAF7DF91CF911F910F910C94AF284E
:102BB00080915302481330C080914D0290914E0293
:102BC0000E94871D883C910538F510E21D0FCD1736
:102BD000B9F080E28C0F883040F4C77081E001C00A
:102BE000880FCA95EAF70E94A428183028F581E0DA
:102BF0009D2F977001C0880F9A95EAF70E94AF2821
:102C0000802F0E94D0291830F0F4D77081E001C0E5
:102C1000880FDA95EAF70AC080E28C0F883098F4C2
:102C2000C77081E001C0880FCA95EAF7DF91CF91A4
:102C30001F910F910C94A428802FDF91CF911F91A9
:102C40000F910C94D029DF91CF911F910F9108958E
:102C5000AF92BF92CF92DF92EF92FF920F931F93AA
:102C6000CF93DF93C4E1D1E084EBC82E81E0D82E6E
:102C700099E1E92E91E0F92EB12C01E010E0BE01BE
:102C80008881F894E82FE295EF70F0E021A18F7031
:102C9000A80102C0440F551F8A95E2F7CA01922F7E
:102CA000982B91A392A18095892382A3789400C048
:102CB000E9E1F1E020E030E0A12C4191842F829500
:102CC0008F7090E0DC0190968C9190E04F7002C084
:102CD000959587954A95E2F780FD07C0802F022ED3
:102CE00001C0880F0A94EAF701C080E0A82A2F5F8C
:102CF0003F4F2430310509F72196FB0180810E9466
:102D0000BD11F0EAFA95F1F7D6018C91A81619F0E9
:102D1000AC9281E001C080E0B82ABFEFCB1ADB0A99
:102D2000EC16FD0609F0ABCFBB2049F081E08093A3
:102D30004C020E94A21D90934B0280934A02809104
:102D40004C028823F1F080914A0290914B020E943C
:102D5000871D0697B0F08091B40180930F02809197
:102D6000B501809310028091B60180931102809189
:102D7000B701809312028091B801809313021092E0
:102D80004C028B2DDF91CF911F910F91FF90EF900F
:102D9000DF90CF90BF90AF9008958F929F92AF92A7
:102DA000BF92CF92DF92EF92FF920F931F93CF9338
:102DB000DF93CDB7DEB729970FB6F894DEBF0FBE0D
:102DC000CDBFFC018081918123813481232B31F09F
:102DD0009F3F31F491E08F3F19F403C091E001C0AF
:102DE00090E090FDB6C57F0185E0DE01119601906F
:102DF0000D928A95E1F7F701228189819A81222338
:102E000049F00E94241F182F682F89819A810E94FF
:102E1000C51F03C00E949A1F182F69817A81812FD4
:102E20000E94B0118C01F7018281882309F47EC0D1
:102E3000980122513F452031310508F08FC08FEFB6
:102E400093E00E94763081117BC0025127ECC22EA4
:102E5000D12C002379F0C114F4E0DF0609F470C02E
:102E6000C6010E947630811101C001501FEFC11AC6
:102E7000D10AEFCF1E821F8218861986AA24AA942F
:102E800086010F5F1F4FC6010E9476308E831F821E
:102E9000882309F455C0813009F043C0460122E07F
:102EA000820E911CC8010E9476308F83882309F41A
:102EB00047C09FEF980F933050F40E5F1F4FC4012F
:102EC0000E947630888781112CC06801D9CF843068
:102ED00011F08401FACFC4010E947630B82E860129
:102EE0000C5F1F4FC60103960E947630BB2041F154
:102EF000882331F1282F30E021503109A29EA00112
:102F0000A39E500D11248B2D90E00197840F951FE7
:102F10000197D8F2EFE9FFE03197F1F700C0000028
:102F2000F7CFCE0106960E94A613CFCF00313FE522
:102F3000130709F005C581E00E94F91F0E949B2339
:102F40008091BC02877009F404C5F701828188234F
:102F500009F4FFC482E00E941E20FBC40031FFE59B
:102F60001F0711F481E005C001312FE5120721F49C
:102F700082E00E943B20E2CF0A33110558F40B3265
:102F8000110509F4B2C08823D9F2F801EB5CFE4FB9
:102F9000808154C00F352DE5120709F44BC028F489
:102FA0000E359DE5190761F059C00036EDE51E07A5
:102FB00009F447C00136FDE51F0709F447C04EC0BC
:102FC000882309F4BDCF6091F8027091F9028091D5
:102FD000FA029091FB020E945613813049F48091CD
:102FE000DD01813019F483E00E943B2081E017C0AD
:102FF000823069F48091DD01813021F40E94F91F53
:1030000083E001C081E00E943B2082E008C0833061
:1030100049F48091DD01823009F092CF83E00E9473
:10302000F91F8ECF8091BD01813009F489C108EA72
:1030300010E088C1882309F483CF8BE20E94CE146C
:103040007FCF882309F47CCF8AE2F8CF882309F464
:1030500077CF8DEC91E00E94A61372CF033F2CE551
:10306000120741F190F4083D9CE51907E9F0093D8C
:10307000ECE51E0789F1073DFCE51F07B1F506E207
:1030800021EE41EE67ED7CE52CC0053F2CE51207F3
:10309000E9F0B0F0063F9CE5190739F507E225EEA7
:1030A00046EE66EF7CE51DC007E225EE45EE68EDD5
:1030B0007CE517C006E221EE40EE63EF7CE511C02F
:1030C00007E225EE44EE64EF7CE50BC006E221EE5C
:1030D00042EE65EF7CE505C008E221E045EE69EDD2
:1030E0007CE5C7010E94B5152BCF882309F447C1A1
:1030F000109253020230ECE51E0708F42AC1063193
:10310000FCE51F0730F0C8018A5F9C45099708F06D
:1031100020C10E94341E9093B3018093B20100310C
:103120002CE5120709F4C3C008F041C008308CE553
:10313000180709F49AC0F0F40430ECE51E0709F40E
:1031400087C068F402302CE5120709F477C0033019
:103150001C4509F0E5C08091B201826076C006305E
:103160008CE5180709F46EC008F07BC08091B201AD
:1031700088606BC00C30ECE51E0709F485C068F46C
:103180000A302CE5120709F474C008F079C00E94D7
:103190008B228091B201806858C00E308CE51807F0
:1031A00009F476C008F07FC08091B2018BC00B3F5C
:1031B000ECE51E0709F44FC018F503312CE51207A2
:1031C00009F47DC078F401318CE5180709F473C067
:1031D00002311C4509F0A4C00E948B228091B201EB
:1031E0008F7733C00531ECE51E0709F472C008F48F
:1031F00086C00A3F1C4509F093C08091B3013EC0D0
:103200000F3F3CE5130709F45FC058F40D3F9CE500
:10321000190709F444C008F43FC08091B3018260EB
:103220002DC00130FDE51F0709F475C008F45DC02D
:1032300002301D4509F074C060E06EC08091B2019B
:10324000816003C08091B20180618093B20168C047
:103250008091B20111C08091B30182608093B3016B
:103260005FC08091B2018062F0CF8091B201806432
:10327000ECCF8091B20188608460E7CF8160EECFAF
:103280008091B2018E7FE1CF8091B2018D7FDDCF41
:103290008091B201877FD9CF8091B30118C080910E
:1032A000B3018D7FDBCF8091B2018F7ECECF809135
:1032B000B2018F7DCACF8091B2018F7BC6CF809142
:1032C000B201877F8B7FC1CF8091B3018D7F8E7FCD
:1032D000C5CF8091B20182FB222720F991E092278D
:1032E00090FB82F990FB83F9B0CF8091B301982FC6
:1032F000909591708E7F892B90FB81F9AFCF0E94C2
:103300008B228091B20187FB222720F991E092273E
:1033100090FB87F99ACF61E08EE090E00E948430C4
:103320006091B2011091B30184E090E00E9484307A
:10333000612F82E290E00E9484300E948B2200CEB6
:103340000EEA10E0C8010E946F14C8010E945914CF
:10335000F7CD0631FCE51F0711F58091BF028A7A8F
:1033600091E009F490E090935402882311F065E312
:1033700001C069E285E592E00E94FF1D0DC00631A3
:103380001C45F1F580915402882309F4E0C265E3FD
:1033900085E592E00E94D71D0E94B61ED1CD0A3568
:1033A0008DE5180741F150F40115ECE51E07A9F071
:1033B0000E3D1C4529F50E94451EC2CD0B352DE55D
:1033C0001207D9F00C351D45D9F48091B30182FB69
:1033D000882780F991E0892711C00E948B228FEF06
:1033E00094E3ECE081509040E040E1F700C0000041
:1033F0000E943D1DA5CD81E001C080E00E940A1F12
:10340000F701828100811181882349F0C8010E945F
:10341000241FD82E682FC8010E94C51F04C0C801F0
:103420000E949A1FD82EB8018D2D0E94D4118C01B4
:10343000982EF701B280A580A2949FE0A9228091E6
:10344000BC02877099F0BB2089F0812F807F803487
:1034500021F080E2800F883048F082E00E941E2038
:103460008091BC028770DD24D3948111D12CC12EB0
:10347000C2948FE0C8228C2D90E08C30910508F02A
:103480003FC2FC01E759FF4F0C946F33812F807FBF
:103490001F70882311F01295107FBB20B9F0112303
:1034A00009F419C280E2800F883010F0911006C034
:1034B0008091BF02182B1093BF0205C08091BE02FD
:1034C000182B1093BE020E94B61E05C2802F0E94C8
:1034D000B928112309F414C2005E1095083010F0C9
:1034E000911006C08091BF0218231093BF0205C03F
:1034F0008091BE0218231093BE020E94B61E00C225
:10350000812F807F1F70803211F01295107F9920DB
:1035100021F0F1E09F1611F130C0BB20B1F0AA20DC
:1035200081F001E0A0120DC08091B30182FDE8C1DD
:103530008091C002182B181709F4E2C11093C00241
:10354000DFC18091C002812B10C0AA2021F021E0B0
:10355000A21609F4D5C10E94B01E27C0BB2041F0BD
:1035600035E03A1508F4CCC1812F0E94AF28C8C1BC
:1035700084E08A1508F4C4C118C0BB2049F0AA2011
:1035800099F3F701858180FFA6C18F708583ECCF09
:10359000AA2059F0093309F0B0C1FFEF17EE23E07C
:1035A000F15010402040E1F7A6C1812F0E94A428CD
:1035B000A7C1812F86958695837019F0813059F0C7
:1035C0009FC1BB2019F0C801937002C080E090E059
:1035D0000E9473109DC1BB2019F0C801937002C0F6
:1035E00080E090E00E945D1093C1812F837009F00C
:1035F00069C0B11089C1902F929596959770990FD7
:10360000990F802F8F70882E912CA12CB12C092E10
:1036100004C0880C991CAA1CBB1C0A94D2F704FF96
:1036200012C04FE050E060E070E004C0440F551F4E
:10363000661F771F9A95D2F7DB01CA018095909596
:10364000A095B09503C080E090E0DC01169516953A
:10365000412F4370423019F1C8F40091C10210911A
:10366000C2022091C3023091C402413059F088292E
:103670009929AA29BB29BC01CD016023712382238A
:1036800093230AC0802A912AA22AB32ABC01CD0121
:10369000682979298A299B290E945C2035C18829BB
:1036A0009929AA29BB290091C1021091C202209137
:1036B000C3023091C402BC01CD016027712782276B
:1036C0009327EACFBB2019F0812F817001C0869526
:1036D000882309F419C1902F929596959770990FA8
:1036E000990F802F8F70882E912CA12CB12C092E30
:1036F00004C0880C991CAA1CBB1C0A94D2F704FFB6
:1037000012C04FE050E060E070E004C0440F551F6D
:10371000661F771F9A95D2F7DB01CA0180959095B5
:10372000A095B09503C080E090E0DC011695169559
:10373000412F43704230D9F068F50091F8021091A2
:10374000F9022091FA023091FB02413059F08829A8
:103750009929AA29BB29BC01CD01602371238223A9
:1037600093231EC0802A912AA22AB32A13C0882933
:103770009929AA29BB290091F8021091F9022091F8
:10378000FA023091FB02BC01CD016027712782272C
:10379000932706C0BC01CD01682979298A299B2974
:1037A0000E94EF1FB1C01F70BB2039F0812F0E9413
:1037B0003B20802F0E94AF28A7C0802F0E94A42802
:1037C000812F0E94F91FA0C0802F32EF931609F4B9
:1037D00040C0391538F090EF991661F0E1EF9E1670
:1037E00099F174C0F3EF9F16D9F124EF921609F402
:1037F0004EC06CC0BB2019F134E03A1508F480C00B
:103800001F7181E090E0A0E0B0E0AC01BD0104C018
:10381000440F551F661F771F1A95D2F78091F80243
:103820009091F902A091FA02B091FB028A019B01EA
:10383000082719272A273B27C901B80125C025E0F9
:103840002A1508F45DC0DCCFBB2029F0812F8F71D1
:1038500030C0BB20D9F3812F8F710E94F91F50C057
:10386000BB2079F01F7181E090E0A0E0B0E0BC01E6
:10387000CD0104C0660F771F881F991F1A95D2F7D4
:1038800003C060E070E0CB010E94EF1F39C0BB2095
:1038900099F01F71812F0E943B208091B30182FD1E
:1038A00007C038E0139FC001112483608093BC02DD
:1038B000812F0E943B2024C081E00E941E2081E0D5
:1038C0008A15F0F482E00E941E201AC0BB2039F055
:1038D000AA2009F4BBCF802F0E94152911C0AA206D
:1038E00009F4B9CF893349F49FEFE7EEF3E0915043
:1038F000E040F040E1F700C00000802F0E94B928AE
:1039000088EF8C0D843020F40E9489100E9450139F
:10391000DD20F9F08091BC0280FD1BC0F70112820E
:103920008595859585950E943B20C7010E94CD16FF
:103930008091BC028595859585950E94F91F09C0E7
:1039400001319FE5190709F017CB82E0F5CA69E25A
:103950001FCD29960FB6F894DEBF0FBECDBFDF9105
:10396000CF911F910F91FF90EF90DF90CF90BF907C
:10397000AF909F908F90089508958091CB02089505
:1039800080E00895CF93DF9300D01F92CDB7DEB7CC
:103990009091EE02943011F589837B836A83909332
:1039A000E9008FEF9091E800815095FD06C095EDFC
:1039B0009A95F1F700008111F5CF8091E80085FF1D
:1039C0000DC040E050E063E070E0CE0101960E943F
:1039D00063288091E8008E778093E8000F900F9025
:1039E0000F90DF91CF910895BC0184E00C94C21C2C
:1039F000BC0183E00C94C21CCF93DF932091130190
:103A0000222339F02091B20127FF03C060E224E0B5
:103A100002C068E021E02093E9002FEF3091E80038
:103A2000215035FD06C035ED3A95F1F70000211122
:103A3000F5CF2091E80025FF1DC0EC018091130116
:103A4000811105C040E050E068E070E003C070E024
:103A500040E050E0CE010E9463288091E8008E771C
:103A60008093E80080E2FE01ACECB2E001900D92A0
:103A70008A95E1F7DF91CF91089581E08093E0008E
:103A800080E28093D8001092C9008FE19EE40197F4
:103A9000F1F700C0000087E090EBDC01809309059E
:103AA00090930A05A0930B05B0930C059CE088E168
:103AB0000FB6F894A895809360000FBE90936000B5
:103AC000FFCF78941F920F920FB60F9211248F930D
:103AD0009F93AF93BF938091C5029091C602A0912E
:103AE000C702B091C8020196A11DB11D8093C50205
:103AF0009093C602A093C702B093C802BF91AF9142
:103B00009F918F910F900FBE0F901F9018959C0161
:103B10004FB7F8948091C5029091C602A091C70258
:103B2000B091C8024FBF821B930B08952FB7F89432
:103B30006091C5027091C6028091C7029091C8023F
:103B40002FBF08952FB7F8948091C5029091C602B7
:103B5000A091C702B091C8022FBF08951F920F9283
:103B60000FB60F9211248F939F93AF93BF938091C1
:103B7000B901811113C08091C5029091C602A09134
:103B8000C702B091C8024196A11DB11D8093C50224
:103B90009093C602A093C702B093C802BF91AF91A1
:103BA0009F918F910F900FBE0F901F9018952091AD
:103BB00013012223C9F02091B20127FF15C0262F3F
:103BC0002695269526952E31C8F4FC01E20FF11DAD
:103BD000677081E090E001C0880F6A95EAF78095F0
:103BE0009281892382830895FC01069622816213C3
:103BF00001C012823196E817F907C1F708952091A4
:103C000013012223C1F02091B20127FF14C0262FF7
:103C10002695269526952E3130F5FC01E20FF11DF3
:103C2000677081E090E001C0880F6A95EAF79281A1
:103C3000892B82830895FC0132962FEF30E0419169
:103C4000641789F02F3F19F4411101C0232F3F5F02
:103C50003630A9F72F3F39F0FC01E20FF11D27FDA7
:103C6000FA95628308950895CF9384E090E00E94CE
:103C70007630C82F82E290E00E9476302C2F30E020
:103C8000A901582BCA01CF9108956AEE7EEF80E01A
:103C900090E00E94A23060E082E090E00E948430D8
:103CA00060E083E090E00E9484301092C1021092A4
:103CB000C2021092C3021092C40260E084E090E05D
:103CC0000E94843060E082E290E00E94843060E0F4
:103CD00085E090E00E94843060E086E090E00E9401
:103CE00084306FEF87E090E00E94843040E050E045
:103CF000BA0188E090E00E94963060E08DE090E0AC
:103D00000E94843040E050E0BA0188E190E00E94D7
:103D1000963060E087E190E00E94843040E050E01F
:103D2000BA018CE190E00E94963060E070E080E2A1
:103D300090E00E94A23040E050E0BA0188E190E0BB
:103D40000E94963040E050E0BA018FE090E00E947F
:103D5000963040E050E0BA0183E190E00C94963058
:103D60008091C00281111092C00208959091BF020B
:103D70008091BE02892B2091BD02982F922B9093A7
:103D800055028091C0028823D9F0892B8093550277
:103D900080911301882331F08091B20187FF02C026
:103DA0008EE101C086E0E7E5F2E090E0815028F086
:103DB00021912223D9F39F5FF9CF91110E94B01E68
:103DC000E091BE01F091BF013097A9F080911301FD
:103DD000882359F08091B20187FF07C08091550276
:103DE0008093560285E0809355020280F381E02D96
:103DF00085E592E00994089580E090E00E947310B8
:103E000080E090E00E945D101092BE021092BD0210
:103E10000C94B61ECF93C091B301C2FB992790F9C1
:103E2000981781F080FBC2F9C093B3016091B20191
:103E300084E090E00E9484306C2F82E290E0CF9189
:103E40000C948430CF910895BF92CF92DF92EF927D
:103E5000FF920F931F93CF93DF938C01C090F802D2
:103E6000D090F902E090FA02F090FB028091C1023A
:103E70009091C202A091C302B091C402C82AD92A6B
:103E8000EA2AFB2ACFE1D0E0D701C6010C2E04C0FC
:103E9000B695A795979587950A94D2F780FD04C0AB
:103EA000219790F7B12C07C0BC2EB8018C2F0E942F
:103EB000D4110197A9F38B2DDF91CF911F910F9111
:103EC000FF90EF90DF90CF90BF900895CF93DF9356
:103ED000EC010E94241FBE010E94D411DF91CF91FA
:103EE00008950E94661F292F2F70E92FE295EF7029
:103EF0004E2F50E0FA013297EE30F105B8F4EB584E
:103F0000FF4F0C946F33803F99F018F4883E70F4A3
:103F10000FC0843F59F40CC0883E50F0813F31F40B
:103F200007C0822F869586958695089580E008952E
:103F300081E00895990F990F890F682F669566950E
:103F40006695982F977085E0689FB001112440E036
:103F500050E080E0FB01E40FF51FE355FD4F2081A9
:103F600030E0092E02C0369527950A94E2F72170B9
:103F70003327042E01C0220F0A94EAF7822B4F5FE9
:103F80005F4F4530510531F70895990F990F890F0B
:103F9000E82FE695E695E695877051E001C0550F4C
:103FA0008A95EAF785E0E89FF0011124E355FD4F7B
:103FB00020E030E070E04081CB01022E02C09695F7
:103FC00087950A94E2F78170819584278523842759
:103FD00081932F5F3F4F2530310569F70895609336
:103FE000F8027093F9028093FA029093FB020C940A
:103FF000FC1E0F931F9341E050E060E070E004C0AE
:10400000440F551F661F771F8A95D2F7409550952C
:10401000609570958091F8029091F902A091FA0252
:10402000B091FB028A019B01082319232A233B2319
:10403000C901B8011F910F910C94EF1F2091BC0290
:10404000809582238093BC02982F977041F430E0D2
:10405000482F082E000C550B2417350721F490919A
:10406000B30192FF07C08595859585950E94F91F3C
:104070001092BC0208950F931F9341E050E060E05E
:1040800070E004C0440F551F661F771F8A95D2F752
:104090008091F8029091F902A091FA02B091FB028E
:1040A0008A019B01082B192B2A2B3B2BC901B80134
:1040B0001F910F910C94EF1F6093C1027093C20285
:1040C0008093C3029093C4020C94FC1E8091AC02B6
:1040D00090917B02891719F08F5F8770FBCF08954D
:1040E0000F931F93CF93DF9380917A0282958F7005
:1040F00009F05DC080917702882309F458C080914F
:10410000AC0210917B026091750270917602C091B1
:104110007802D091790291E06F3F09F090E0292F69
:1041200006E0811709F443C0209721F07F3F21F07A
:1041300030E003C031E001C0322F90E030FD34C0E8
:10414000089FF001099FF00D1124DF01A458BD4F15
:1041500011963C911197371327C03C91361324C018
:1041600012963C91129731111FC013964D915C919C
:1041700014974C1B5D0B483C5105B0F480917A02BA
:104180008F70806180937A02EF57FD4F80818F702E
:104190008061808385E792E00E94CD16DF91CF9108
:1041A0001F910F910C94662001968770BACFDF9112
:1041B000CF911F910F9108959F92AF92BF92CF928E
:1041C000DF92EF92FF920F931F93CF93DF93CDB7C0
:1041D000DEB761970FB6F894DEBF0FBECDBF8C017E
:1041E00085E0F801DE011D9601900D928A95E1F7B8
:1041F000F80190818181E2803091750260917602B0
:1042000040917802509179024115510531F06F3F8C
:1042100031F421E03F3F19F403C021E001C020E068
:10422000F22FF1709F2E20FD23C1F801C380D480AE
:1042300025E7A22E22E0B22EF0907702F601E41BD1
:10424000F50BFF2009F4CEC020917A02E83CF1057D
:1042500008F099C0422F407F09F051C0681311C087
:1042600039130FC0FE2CE1100CC02F702061209379
:104270007A02C5010E94CD1680917A02F8018583E9
:1042800037C1CD2831F08F3F31F421E09F3F19F441
:1042900003C021E001C020E020FD03C021E02E2565
:1042A00002C020E030E0F22FF170FF2E20FF1DC091
:1042B0002091AC0240917B0256E0241709F4F6C02D
:1042C00030E0529FF001539FF00D1124E458FD4F50
:1042D0006181861306C06081961303C06281E61275
:1042E00004C02F5F3F4F2770E8CFFE2CEE2009F46B
:1042F000FFC080917A02816080937A0250C0681377
:1043000007C0391305C0E11003C0F80125838DC033
:104310009D878E878D859E850E94711F882369F1F8
:10432000EE2059F120917A02822F82958F7090E0D1
:10433000029774F0809175029091760298878F832E
:104340001986DB86CA862C87CE0107960E94CD1679
:1043500086E0F801A5E7B2E001900D928A95E1F7B9
:104360000E9470200DC06817E1F09D878E878D85B3
:104370009E850E94711F81111EC0C8010E94CD162A
:10438000FF24F394B5C0422F407F69F785E792E0A0
:104390000E94CD1686E0F50111928A95E9F7F12C7D
:1043A000A7C03913E2CFE110E0CFF8012583C8019F
:1043B0000E94CD1657C0EE2001F320917A02822F81
:1043C00082958F7090E002971CF280917502909117
:1043D00076029A8389831B82DD82CC822E83CE0172
:1043E0000196B4CFE83CF105E8F5FE2CEE2029F269
:1043F000681327C0391325C020917A0220FD18C008
:10440000822F82958F70482F50E04115510581F021
:10441000F80125834F30510541F08F5F982F929519
:10442000907F822F8F70892B8583C8010E94CD16C3
:1044300086E0F801A5E7B2E001900D928A95E1F7D8
:1044400057C09D878E878D859E850E94711F811123
:104450007FCF80917A02816080937A02C8010E94A6
:10446000CD1646C086E0F50111928A95E9F740C065
:10447000EE2009F482CF9D878E878D859E850E94D0
:10448000711FF82E882309F478CF86E0F801A5E79C
:10449000B2E001900D928A95E1F7809175029091BA
:1044A00076020E94661F0E94702022C09D878E8720
:1044B0008D859E850E94661F292F22952F702230A0
:1044C00028F49F7039F0811105C00BC0243028F406
:1044D0009F7049F4805E883020F0C8010E94CD169C
:1044E0009F2CF92C05C0F8019581907F99F7F9CFA1
:1044F0008F2D61960FB6F894DEBF0FBECDBFDF9152
:10450000CF911F910F91FF90EF90DF90CF90BF90D0
:10451000AF909F9008951092BF028091130188235D
:1045200031F08091B20187FF02C08EE101C086E0C8
:10453000E7E5F2E0DF011D928A95E9F70C94FC1E95
:10454000CF93DF93C0910505D09106058A30B1F471
:104550002091FC02CE018F5F9240622F70E00E949A
:104560004733281B822F66E00E943B33C82FC1507F
:1045700008F48FC080E20E94A022F9CF8D30E9F4C8
:10458000CF5FD2402091FC02622F70E0CE010E94EA
:104590004733281B822F9E01280F311D21153240E1
:1045A00018F080E0C0E0D0E0C80FD11DC150DD4F51
:1045B000D0930605C09305056CC096E0FE01AFEFF1
:1045C000B4E001900D929A95E1F7803E30F086E0DC
:1045D000FE0111928A95E9F70BC0F6E08F9FB001BA
:1045E0001124695F774F46E050E0CE010E94FC2C19
:1045F000C0910505D091060546E050E0BE018FEF61
:1046000094E00E947C33892B49F19E012F5F324058
:10461000A90185E0569547958A95E1F781E090E0FC
:10462000BC0102C0660F771F4A95E2F74091FD0278
:104630005091FE02462B572B2B5F3F4F65E036957E
:1046400027956A95E1F702C0880F991F2A95E2F72E
:10465000842B952B9093FE028093FD029E01295F8F
:1046600032404091FC02642F70E0C9010E94473340
:10467000481B463010F4240F311D211582E0380705
:1046800010F020E030E021503D4F3093060520939C
:104690000505DF91CF910895CF93DF93EC01FE01E3
:1046A0008491882321F00E94A0222196F8CFDF91E7
:1046B000CF9108950F931F93CF93DF93EC01FC01EB
:1046C00001900020E9F78F0101501109C017D107AF
:1046D00020F489910E94A022F9CFDF91CF911F9100
:1046E0000F910895EF92FF920F931F93CF93DF9353
:1046F000EC017B0164E670E088E70E94A62A8C0149
:10470000EC0EFD1ECE15DF0561F017FD0AC0FE019F
:10471000849164E670E00E94FD2A8C012196892B29
:1047200089F30E94812BC801DF91CF911F910F91D6
:10473000FF90EF9008950F931F938091F80290914E
:10474000F902A091FA02B091FB028C019D01067062
:10475000112722273327BC01CD0106301105210581
:10476000310511F4686001C0677F1F910F910C94AF
:10477000EF1F1F93CF93DF93CDB7DEB7AA970FB686
:10478000F894DEBF0FBECDBFE0EFF2E08091F10004
:10479000819342E0E83FF407C9F78091F10283304A
:1047A00009F462C030F4813071F0823009F49CC0A9
:1047B000B3C08A3009F488C08B3009F46DC08930E9
:1047C00009F0AAC020C08091F002813A09F0A4C08B
:1047D0008091E800877F8093E8008091F4029091B7
:1047E000F502892B21F460E28CEC92E003C060E0DA
:1047F00080E090E070E00E94422A8091E8008B7790
:104800008093E80089C08091F002813209F084C071
:104810008091F4029091F502009719F0029709F047
:104820007BC08091E800877F8093E8008091E8005A
:1048300082FD05C08091EE028111F8CF6DC02091FC
:10484000F3008091F20090E0922B029729F480917E
:10485000F1008B7F813021F48091F1008093CB02B5
:104860008091E8008B7754C08091F002813A09F082
:1048700053C08091F4029091F502892B09F04CC04D
:104880008091E800877F8093E8008091E80080FFB6
:10489000FCCF8091130137C08091F0028132E1F5A5
:1048A0008091F4029091F502892BB1F58091E80096
:1048B000877F8093E8000E94EE298091F202809326
:1048C00013010E948B2228C08091F002813221F5D1
:1048D0008091E800877F8093E8000E94EE29809114
:1048E000F3028093CA0218C08091F002813AA1F4C9
:1048F0008091E800877F8093E8008091E80080FF46
:10490000FCCF8091CA028093F1008091E8008E77FD
:104910008093E8000E94EE298091E80083FFE9C1BE
:104920008091F0029091F102492F50E04A305105F8
:1049300008F0DFC1FA01ED57FF4F0C946F33803858
:1049400021F0823809F0D5C108C08091EC02909125
:10495000ED02992389F082600FC08091F4028F707C
:10496000873008F0C6C18093E9008091EB0085FB99
:10497000882780F91092E9009091E800977F909342
:10498000E8008093F1001092F1007CC1282F2D7F68
:1049900009F0AFC1882319F0823061F0AAC180917B
:1049A000F202813009F0A5C1933009F080E08093D4
:1049B000ED022EC08091F20281112AC08091F40292
:1049C0008F702FEF280F263008F093C18093E900F5
:1049D0002091EB0020FF1CC0933021F48091EB006C
:1049E000806214C09091EB0090619093EB0021E005
:1049F00030E0A90102C0440F551F8A95E2F74093A9
:104A0000EA001092EA008091EB0088608093EB004E
:104A10001092E9008091E800877F8093E8000E946F
:104A2000EE2967C1811165C11091F2021F77809153
:104A3000E3008078812B8093E3008091E800877FFA
:104A40008093E8000E94EE298091E80080FFFCCF6F
:104A50008091E30080688093E300111102C082E03E
:104A600001C083E08093EE0244C18058823008F098
:104A700040C12091F2023091F3022C3D53E0350702
:104A800079F583E08A838AE289834FB7F894DE015F
:104A9000139620E03EE051E2E32FF0E05093570000
:104AA000E49120FF03C0E295EF703F5FEF708E2F1F
:104AB00090E0EA3010F0C79601C0C0968D939D93A8
:104AC0002F5F243149F74FBF8091E800877F8093A3
:104AD000E8006AE270E0CE0101960E94422AC0C05E
:104AE0008091F4029091F502432F552743305105F0
:104AF000B1F068F44130510509F40AC14230510562
:104B000009F0F7C08BE590E0E0E7F7E057C04132ED
:104B1000510589F14232510509F43CC0EAC0C9018E
:104B2000992781309105B9F070F082309105D9F064
:104B3000039709F0DEC0EDEDF7E0E4918E2F90E0F1
:104B4000EDEDF7E038C0E3E0F8E0E4918E2F90E07F
:104B5000E3E0F8E030C0EFEEF7E0E4918E2F90E074
:104B6000EFEEF7E028C0E3EEF7E0E4918E2F90E05F
:104B7000E3EEF7E020C08330910508F0BAC0880F5B
:104B8000991FFC01E858FE4F0190F081E02D89E06B
:104B900090E014C08330910508F0ABC0FC01EE0F2B
:104BA000FF1FEE58FE4F0190F081E02DDC01A1596E
:104BB000BE4F8C9190E0009709F49BC02091E800D3
:104BC000277F2093E8002091F6023091F702281702
:104BD000390708F4C90140E0009789F12091EE02FD
:104BE000222309F43DC02530D9F12091E80023FDAE
:104BF00037C02091E80022FD2FC02091E80020FF5F
:104C0000EBCF4091F3002091F20030E0342B00977D
:104C100059F02830310540F444914093F100319629
:104C200001972F5F3F4FF3CF41E02830310509F066
:104C300040E02091E8002E772093E800CDCF41118D
:104C4000CDCF0AC08091EE02882351F0853041F02B
:104C50008091E80083FD04C08091E80082FFF2CFDC
:104C60008091E8008B778093E80043C0803809F09A
:104C700040C08091E800877F8093E8008091EF0238
:104C80008093F1008091E8008E77C7CE811131C00A
:104C90008091F2029091F3029927029754F5809146
:104CA000E800877F8093E8001091F2021093EF02F2
:104CB0000E94EE29111106C08091E30087FD02C019
:104CC00081E001C084E08093EE0242E061EC81E08B
:104CD0000E940D2A42E261EC84E00E940D2A42E229
:104CE00061EC82E00E940D2A42E260EC83E00E94C7
:104CF0000D2A8091E80083FF10C08091E800877F33
:104D00008093E8008091EB0080628093EB0005C007
:104D100082E190E0EBECF7E051CFAA960FB6F89461
:104D2000DEBF0FBECDBFDF91CF911F9108951F92BF
:104D30000F920FB60F9211242F933F934F935F93CF
:104D40006F937F938F939F93AF93BF93CF93DF9393
:104D5000EF93FF93C091E900CF708091EC00D82FC2
:104D6000D17080FDD0E81092E9008091F000877F3B
:104D70008093F00078940E94B9231092E90080910A
:104D8000F00088608093F000CD2BCF70C093E900D5
:104D9000FF91EF91DF91CF91BF91AF919F918F9153
:104DA0007F916F915F914F913F912F910F900FBE27
:104DB0000F901F901895E8EDF0E080818E7F808342
:104DC0001092E2001092DA001092E100A0EEB0E042
:104DD0008C9181608C9380818F77808319BCA7ED43
:104DE000B0E08C918E7F8C9380818F7E8083109237
:104DF000C9020895CF92DF92EF92FF920F931F9313
:104E0000CF93DF93C8EDD0E088818F7E8883E7ED74
:104E1000F0E080818160808384E082BF81E08093C4
:104E2000C90288818E7F888302EE10E0F80110822B
:104E30001092DA0081EEC82ED12CF6011082888102
:104E40008F77888388818068888388818F7D888335
:104E500019BC1092EE021092EF021092ED02109225
:104E6000EC0290EEE92EF12CF70180818B7F80839C
:104E700088818160888342E060E080E00E940D2AA2
:104E8000F60180818E7F8083F8018081816080833C
:104E9000808188608083F70180818E7F8083888114
:104EA00080618883DF91CF911F910F91FF90EF90E8
:104EB000DF90CF9008951F920F920FB60F9211249A
:104EC0002F933F934F935F936F937F938F939F9312
:104ED000AF93BF93EF93FF938091E10082FF09C0EE
:104EE0008091E20082FF05C08091E1008B7F80937A
:104EF000E1008091DA0080FF2AC08091D80080FF15
:104F000026C08091DA008E7F8093DA008091D900EC
:104F100080FF18C080E189BD82E189BD09B400FE2F
:104F2000FDCF81E08093EE028091C90281110FC014
:104F30000E94DB260E94FA268091E2008460809322
:104F4000E20005C019BC1092EE021092C9028091D5
:104F5000E10080FF17C08091E20080FF13C08091C4
:104F6000E2008E7F8093E2008091E2008061809376
:104F7000E2008091D80080628093D80019BC85E05F
:104F80008093EE028091E10084FF2EC08091E200C8
:104F900084FF2AC080E189BD82E189BD09B400FE99
:104FA000FDCF8091D8008F7D8093D8008091E10063
:104FB0008F7E8093E1008091E2008F7E8093E200FB
:104FC0008091E20081608093E2008091EF0288236B
:104FD00011F084E007C08091E30087FD02C081E00A
:104FE00001C083E08093EE028091E10083FF27C03F
:104FF0008091E20083FF23C08091E100877F80934E
:10500000E10082E08093EE021092EF028091E100D5
:105010008E7F8093E1008091E2008E7F8093E2009A
:105020008091E20080618093E20042E060E080E0F5
:105030000E940D2A8091F00088608093F000FF911B
:10504000EF91BF91AF919F918F917F916F915F9100
:105050004F913F912F910F900FBE0F901F90189579
:105060002091E4003091E50095E64091EC00842F1A
:10507000817040FF23C08091E80080FD1DC08091B9
:10508000EE02882399F0853099F08091EB0085FD40
:1050900011C04091E4005091E5002417350729F331
:1050A000915011F09A01E1CF84E0089582E00895D3
:1050B00083E0089581E0089580E008954091E8003C
:1050C00042FFDDCF0895EF92FF920F931F93CF938E
:1050D000DF937C018B010E943028811119C0E70108
:1050E00001151105A1F08091E80085FD0AC08091AD
:1050F000E8008E778093E8000E943028882381F3AF
:1051000007C089918093F10001501109E9CF80E037
:10511000DF91CF911F910F91FF90EF900895882319
:1051200041F080959091BE0289238093BE020C9439
:10513000B61E0895882339F09091BE02892B809382
:10514000BE020C94B61E0895882341F0809590917C
:10515000BF0289238093BF020C94B61E0895882352
:1051600039F09091BF02892B8093BF020C94B61E38
:105170000895882309F458C0682F823869F40E9482
:10518000891081FF51C069E385E592E00E94FF1D0F
:105190000E94B61E69E30EC0833891F40E94891004
:1051A00080FF42C063E585E592E00E94FF1D0E94FA
:1051B000B61E63E585E592E00E94D71D0C94B61EED
:1051C000843869F40E94891082FF2EC067E485E567
:1051D00092E00E94FF1D0E94B61E67E4EBCF8CEFA9
:1051E000860F813A38F380E2860F883070F467705A
:1051F00081E090E001C0880F6A95EAF78095909170
:10520000BF0289238093BF02D9CF8BE5860F8330FD
:1052100020F480E090E00C947310685A673120F419
:1052200080E090E00C945D100895CF93882309F4FA
:10523000B5C0C82F8238B1F40E94891081FDAEC07C
:1052400069E385E592E00E94FF1D0E94B61E2FEFE4
:1052500081EE94E0215080409040E1F700C00000D2
:1052600069E317C08338E1F40E94891080FD96C07D
:1052700063E585E592E00E94FF1D0E94B61E2FEFB8
:1052800081EE94E0215080409040E1F700C00000A2
:1052900063E585E592E00E94D71DCF910C94B61E80
:1052A0008438B1F40E94891082FD78C067E485E5F6
:1052B00092E00E94FF1D0E94B61E2FEF81EE94E047
:1052C000215080409040E1F700C0000067E4E1CF4A
:1052D0008CEF8C0F813AB8F5809113018823E1F0AF
:1052E0008091B20187FF18C0EC2FE695E695E69510
:1052F000F0E0EB5AFD4F8281282F30E04C2F4770B1
:1053000081E090E002C0880F991F4A95E2F782235E
:105310009323892B59F411C0E7E5F2E08191C81776
:1053200029F022E0ED35F207C9F707C06C2F85E5BB
:1053300092E00E94D71D0E94B61E6C2F85E592E078
:105340000E94FF1DAACF80E28C0F883068F4C770DE
:1053500081E090E001C0880FCA95EAF79091BF0202
:10536000892B8093BF0299CFEBE5EC0FE33040F43B
:10537000F0E0E258FE4F808190E0CF910C947310E2
:10538000C85AC73158F4EC2FF0E0EE0FFF1FEF576B
:10539000FE4F80819181CF910C945D10CF91089543
:1053A0001F93CF93DF93182F893319F0C0E0D0E01B
:1053B00002C0C0E5D0E0812F0E941529209741F05E
:1053C0008FE99FE00197F1F700C000002197F6CF29
:1053D000812FDF91CF911F910C94B9288091F00219
:1053E00087FF11C08091E80082FD05C08091EE0228
:1053F0008111F8CF11C08091E8008B770BC08091AC
:10540000EE02882349F08091E80080FFF8CF809178
:10541000E8008E778093E8000895982F973068F51C
:105420009093E900981739F07091EC002091ED000D
:105430005091F00003C0242F762F50E021FD02C0D0
:105440009F5FECCF3091EB003E7F3093EB003091CB
:10545000ED003D7F3093ED003091EB0031603093F3
:10546000EB007093EC002093ED005093F00020913E
:10547000EE0027FDE5CF80E008958F708093E9006E
:1054800081E008952091F6023091F7022617370740
:1054900048F06115710539F42091E8002E772093CA
:1054A000E80001C0B901FC0120E06115710579F146
:1054B0008091EE028823F1F18530F1F18091E800CE
:1054C00083FD3CC08091E80082FD2EC08091E80001
:1054D00080FFEBCF2091F3008091F20090E0922BBF
:1054E0006115710551F08830910538F421912093B0
:1054F000F100615071090196F3CF21E0089709F09E
:1055000020E08091E8008E778093E800CECF2111D3
:10551000CFCF0AC08091EE02882361F0853061F020
:105520008091E80083FD0AC08091E80082FFF2CFFD
:1055300080E0089582E0089583E0089581E0089571
:105540001092B9008CE08093B8000895EF92FF921A
:105550000F931F93CF93DF93182FEB011092BC0092
:1055600084EA8093BC000E94A21D7C018091BC0053
:1055700087FD0EC0CF3F8FEFD807C1F30E94A21D59
:105580008E199F098C179D0788F38EEF9FEF2EC011
:105590008091B900887F883041F08091B900887F80
:1055A000803119F08FEF9FEF21C01093BB0084E88A
:1055B0008093BC000E94A21D8C018091BC0087FDDD
:1055C0000CC0CF3F8FEFD807C1F30E94A21D801BF4
:1055D000910B8C179D0788F3D8CF8091B900887FF5
:1055E000883111F08034F1F680E090E0DF91CF91C6
:1055F0001F910F91FF90EF9008950F931F93CF93FA
:10560000DF93EB018093BB0084E88093BC000E9491
:10561000A21D8C018091BC0087FD0EC0CF3F8FEF93
:10562000D807C1F30E94A21D801B910B8C179D0708
:1056300088F38EEF9FEF0CC02091B900287F81E0A6
:1056400090E0283211F480E090E0919581959109E5
:10565000DF91CF911F910F910895CF92DF92EF923A
:10566000FF920F931F93CF93DF936B018A01790110
:10567000B9010E94A62AE6010C0D1D1DC017D10715
:1056800061F424E92093BC00DF91CF911F910F9129
:10569000FF90EF90DF90CF90089597FDF2CFB70184
:1056A00089910E94FD2AEACFCF92DF92EF92FF927A
:1056B0000F931F93CF93DF93C62F6A017901B8012F
:1056C0000E94A62A97FD11C0B8018C2F0E94FD2AC6
:1056D000E601EC0CFD1CCE15DF0539F097FD05C089
:1056E000B80189910E94FD2AF6CF24E92093BC00DD
:1056F000DF91CF911F910F91FF90EF90DF90CF90AE
:10570000089584E98093BC000895EF920F931F934E
:10571000CF93DF93E80147FD02C034E001C034E1DC
:10572000042E000C550B57FF03C0519541955109AC
:10573000E32E022F242FAE010E94F02DCE01DF9127
:10574000CF911F910F91EF900895A0E0B0E0EBEAA8
:10575000FBE20C94C930EC016B016115710519F085
:10576000FB01918380837E01FFEFEF1AFF0A08811E
:10577000802F90E00E94F32C892B11F0E701F3CFEA
:105780000D3239F47E0182E0E80EF11C098111E04E
:1057900008C00B3229F47E0192E0E90EF11C098168
:1057A00010E0E701219743E050E06CE771E0CE01A3
:1057B0000E94052D892BC1F4239645E050E067E750
:1057C00071E0CE010E94052D892B09F42596C114A4
:1057D000D10419F0F601D183C0831111F6C060E045
:1057E00070E080E89FE7FAC043E050E064E771E0D2
:1057F000CE010E94052D892B59F4C114D10409F45E
:10580000E9C0F2E0EF0EF11CF601F182E082E2C0A5
:1058100020E030E0A901C0E0D0E0F70180EDA82E43
:10582000A00E89E08A1530F1912F9260B92E812F58
:10583000887012FF04C0811124C0219622C08111FA
:105840002197A5E0B0E00E94B830DC01CB01880FC1
:10585000991FAA1FBB1F9C01AD012A0D311D411DBF
:10586000511D283989E93807480789E1580748F068
:10587000166006C09EEFA9120AC013FD40C0186052
:10588000B12E8FEFE81AF80A00811B2DC6CF802FAA
:105890008F7D8534A1F580818D3211F4106106C0B1
:1058A0008B3221F0319661E070E004C08181329644
:1058B00062E070E080538A3018F0E61BF70B1FC0DF
:1058C00060E070E060389CE079075CF4DB01AA0FCF
:1058D000BB1FAA0FBB1F6A0F7B1F660F771F680FC6
:1058E000711D3196DF0111978C9180538A3050F3EE
:1058F00014FF03C0719561957109C60FD71F11FF81
:1059000008C0C114D10429F0CF010197F601918399
:105910008083CA01B9010E94222D212F23702330D8
:1059200019F04B015C0106C04B015C01B7FAB09461
:10593000B7F8B09420E030E0A901C501B4010E949D
:105940001D2D882309F43EC0D7FF06C0D195C1950F
:10595000D10903E911E002C00BEA11E06801F8E1A6
:10596000CF1AD10890E2E92EF12CCE15DF0574F0A4
:10597000F8012591359145915491C501B4010E94DA
:10598000832D4B015C01CE19DF09EFCF04501109C3
:10599000F594E7940C151D0541F78A2D880F8B2D82
:1059A000881F8F3F49F020E030E0A901C501B40114
:1059B0000E941D2D811106C082E290E0909308059F
:1059C00080930705C501B40109C060E070E080E87C
:1059D0009FEF04C060E070E080EC9FE7CDB7DEB7DA
:1059E000ECE00C94E53091110C942230803219F0E7
:1059F00089508550C8F70895FB01DC0102C005906D
:105A00000D9241505040D8F70895FB01DC01415000
:105A1000504088F08D9181341CF08B350CF4805E01
:105A2000659161341CF06B350CF4605E861B61116E
:105A300071F3990B0895881BFCCF0E945F2D08F429
:105A400081E00895E89409C097FB3EF49095809515
:105A5000709561957F4F8F4F9F4F9923A9F0F92F34
:105A600096E9BB279395F695879577956795B795B2
:105A7000F111F8CFFAF4BB0F11F460FF1BC06F5F98
:105A80007F4F8F4F9F4F16C0882311F096E911C0AA
:105A9000772321F09EE8872F762F05C0662371F0CB
:105AA00096E8862F70E060E02AF09A95660F771FDF
:105AB000881FDAF7880F9695879597F90895990FBB
:105AC0000008550FAA0BE0E8FEEF16161706E807C8
:105AD000F907C0F012161306E407F50798F0621BE9
