:100000000C946A060C94B1060C94B1060C94B106DB
:100010000C94B1060C94B1060C94B1060C94B10684
:100020000C94B1060C94B1060C94EF280C94C529DD
:100030000C94AF180C94B1060C94B1060C94B10654
:100040000C94B1060C94B1060C94B1060C94B10654
:100050000C94B1060C94B7210C94B1060C94B10623
:100060000C94B1060C94B1060C94B1060C94B10634
:100070000C94B1060C94B1060C94B1060C94B10624
:100080000C94B1060C94B1060C94B1060C94B10614
:100090000C94B1060C94B1060C94B1060C94B10604
:1000A0000C94B1060C94B1060C94B1060800000043
:1000B000BE922449123EABAAAA2ABECDCCCC4C3E5D
:1000C00000000080BEABAAAAAA3E00000000BF004C
:1000D0000000803F0000000000084178D3BB438748
:1000E000D1133D190E3CC3BD4282AD2B3E68EC825C
:1000F00076BED98FE1A93E4C80EFFFBE01C4FF7FE1
:100100003F00000000004E414E494E495459494EAF
:1001100046CDCCCC3D0AD7233C17B7D13877CC2B72
:10012000329595E6241FB14F0A000020410000C817
:100130004200401C4620BCBE4CCA1B0E5AAEC59D98
:100140007400407A10F35A00A0724E18090010A5EE
:10015000D4E80000E87648170000E40B54020000E1
:10016000CA9A3B000000E1F5050000809698000067
:100170000040420F000000A0860100000010270090
:10018000000000E803000000006400000000000A16
:1001900000000000000100000000002C76D888DC80
:1001A000674F0823DFC1DFAE59E1B1B796E5E3E45D
:1001B00053C63AE651997696E8E6C28426EB898CD6
:1001C0009B62ED407C6FFCEFBC9C9F40F2BAA56F38
:1001D000A5F490055A2AF75C936B6CF9676DC11B07
:1001E000FCE0E40D47FEF520E6B500D0ED902E03CF
:1001F00000943577050080841E080000204E0A0018
:100200000000C80C333333330F986E12831141EF63
:100210008D2114893BE65516CFFEE6DB18D1844BC1
:10022000381BF77C1D901DA4BBE424203284725E31
:10023000228100C9F124ECA1E53D2705010980A137
:1002400001850319012AB700150126B7009501752C
:10025000108100C0050C0901A101850419012AA023
:1002600002150126A002950175108100C005010943
:1002700006A1018505050719E029E7150025019567
:1002800008750181020507190029EF150025019560
:10029000F07501810205081901290595057501917F
:1002A00002950175039101C00660FF0961A1010972
:1002B00062150026FF00952075088102096315006C
:1002C00026FF00952075089102C005010906A101CD
:1002D000050719E029E71500250195087501810238
:1002E0009501750881010507190029FF150026FFF2
:1002F0000095067508810005081901290595057501
:10030000019102950175039101C000AF00AE00009C
:10031000000000003E5B4F5B3E003E6B4F6B3E00BB
:100320001C3E7C3E1C00183C7EBC18001C577D57B0
:100330001C001C5E7F5E1C0000183C180000FFE7DC
:10034000C3E7FF00001824180000FFE7DBE7FF0009
:1003500030483A060E00262979292600407F0505F7
:100360000700407F05253F005A3C663C5A007F3E0F
:100370001C1C0800081C1C3E7F0014227F22140055
:100380005F5F005F5F0006097F017F00006689955F
:100390006A0060606060600094A2FFA2940008049C
:1003A0007E04080010207E20100008082A1C080087
:1003B000081C2A0808001E10101010000C1E0C1E2D
:1003C0000C0030383E383000060E3E0E06000000AD
:1003D0000000000000005E000000000600060000B3
:1003E000143E143E1400242A7F2A120026160834D4
:1003F0003200364A56205000000A06000000003C39
:10040000420000000000423C000014083E081400B6
:1004100008083E08080000A060000000080808085E
:1004200008000000606000002010080402003E4147
:1004300041413E0000427F40000072494949460068
:10044000214145453B003826217F20002F4949495D
:1004500031003E494949310001016119070036491F
:10046000494936004E5151513E0000001400000031
:10047000004034000000000814220000141414147A
:1004800014000000221408000004520A04003E4137
:100490005D594E007E0909097E007F4949493600B1
:1004A0003E41414122007F4141413E007F4949494F
:1004B00041007F09090901003E4149493A007F088E
:1004C00008087F0000007F0000002041413F00003D
:1004D0007F08142241007F40404040007F02040218
:1004E0007F007F0204087F003E4141413E007F09BA
:1004F000090906003E4151215E007F091929460085
:1005000026494949320001017F0101003F40404036
:100510003F001F2040201F003F4038403F00631431
:10052000081463000708700807006151494543003B
:10053000007F4141000002040810200000004141FA
:100540007F000402010204004040404040000000DF
:10055000060A00002054545478007E484848300071
:10056000304848484800304848487E003854545481
:10057000580000087C0A000098A4A4A478007E0813
:100580000808700000007A0000002040403A000097
:100590007E102844000000007E4000007C047804A7
:1005A00078007C0404047800384444443800FC2477
:1005B0002424180018242424FC007C0804040800C7
:1005C00048545454240000047E4400003C40402021
:1005D0007C001C2040201C003C4030403C00442853
:1005E000102844005CA0A0A07C004464544C44004B
:1005F0000008364100000000FF00000000413608FE
:1006000000000201020402003C2623263C007EFF7B
:1006100081FBF7EF81FFC1BFBFBFC1FF81FBF7FBCC
:1006200081FF7E0000007EFFC3BDBDBDDBFF83ED0B
:10063000EDED83FF81EDEDEDF3FF7E0000007EFF29
:10064000E1DFBFDFE1FFC3BDBDBDC3FF81BFBFBFF2
:10065000BFFF7E0000007EFF81B5B5B5CBFF81ED09
:10066000CDADB3FFFDFD81FDFDFF7E0000007EFFEF
:10067000C3BDBDBDDBFF83EDEDED83FF81BFBFBF1C
:10068000BFFF7E00000000000008083E08080000D0
:100690000000000000080808080800000000000032
:1006A0003E6F5F637B7B3E00000000003E7F596F22
:1006B000777B3E00000000000014083E0814000094
:1006C000000000000008082A0808000000000000E0
:1006D0007E0408107E003E4040403E007E04080438
:1006E0007E000000000000003C42424224007C12D8
:1006F00012127C007E1212120C00000000007EFF1D
:1007000081FBE7FB81FF81B5B5B5BDFF81BDBDBDF7
:10071000C3FF7E0000007EFF81B5B5B5CBFF81EF42
:10072000F7EB9DFF81BFBFBFBFFF7E0000007EFFD4
:1007300081EDEDEDF3FF83EDEDED83FF81BDBDBDFB
:10074000C3FF7E00000000003E776F777B773E009E
:10075000000000000008100804080000000000006D
:100760003E77775577773E0000007EFFB3ADADADA5
:10077000DBFFC3BDBDBDDBFF81EDCDADB3FF7E00B3
:10078000000000000010201C040400000000000015
:100790003C42424224007C1212127C007E404040C7
:1007A00040000000000000007E1212120C007C12BB
:1007B00012127C007E4242423C00000000007EFF9C
:1007C000C3BDBDBDC3FF7E0000007EFFFFBB81BF78
:1007D000FFFF7E0000007EFF9BADADADB3FF7E004E
:1007E00000007EFFDDBDB5B5C9FF7E0000007EFFC5
:1007F000E7EBED81FFFF7E0000007EFFD1B5B5B5D0
:10080000CDFF7E00000000003E77774177773E0005
:10081000000000003E77777777773E000000000009
:100820003E6B7741776B3E00000000004C52525205
:1008300024003C42424224007E1232524C0000000E
:10084000000000000000261008040000000009025B
:100850005B00030100A0FA0904000001030101008C
:100860000921110100012240000705810308000A47
:100870000904010002030000000921110100012206
:100880002200070582032000010705030320000161
:1008900009040200010300000009211101000122E6
:1008A0006D000705840320000A12011001000000FA
:1008B00008524742520100010200010A035200752A
:1008C00000620069000000120367007200650067A3
:1008D000006F00720069006F00000004030904004B
:1008E000DA0281FFD9F1DB20A4A62EAF00A0C00060
:1008F000A1C800AED580A81FD300408D1420003FB2
:100900002000CECF00CCCD00CACB00C8C9004C41DE
:10091000594552008C8D8E8F00A8A9AAAB008889FA
:100920008A8B00454E4300DADBDCDD00BABBBCBD80
:1009300000A4A5A6A7008485868700A0A1A2A30085
:100940008081828300B4B5009A9B00BEBF00DEDFC9
:1009500000989900B6B700B8B900D8D900949500AE
:10096000D6D700D4D5009697009C9D009E9F00008E
:100970000000000000000000000000000000000077
:100980000000000000000000000000000000000067
:100990000000008080808080800000000000000057
:1009A00080808080808080808080800000000000C7
:1009B0000080808080000000000000808080800037
:1009C00000808080808080808080808000000000A7
:1009D0000080808080000000000000000000000017
:1009E0000000000000000000000000000000000007
:1009F00000000000000000000000000000000000F7
:100A00000000000000000000000080E070B8DCCCB6
:100A1000B67BFEFBBBDFE7CB7EFE000000000000E4
:100A2000FF000000F80808080808F9E1020CF800C7
:100A300000FFFFFFFF000000000000FFFFFFFF00BE
:100A400000FFFFFFFFC7C7C7C7C7CFFFFFFE7C0080
:100A500000FFFFFFFF00000000000000000000009A
:100A60000000000000000000000000000000000086
:100A70000000000000000000000000000000000076
:100A80000000000000000000007FBFBCD3DFDFF7E4
:100A9000BBBBFC7E7BF7EFDFBE738E000000000067
:100AA000FF000000E322222262C20138EC8701002D
:100AB000001F3F7FFFF8F0F0F0F0F8FF7F3F1F00CE
:100AC00000FFFFFFFFE3E3E3E3E3F3FFFF7F3E000D
:100AD00000FFFFFFFF00000000000000000000001A
:100AE0000000000000000000000000000000000006
:100AF00000000000000000000000000000000000F6
:100B000000000000000000000000000000000000E5
:100B100001010101010000000101000000000000CE
:100B200001010101010000000001010101010000BB
:100B300000000000000001010101000000000000B1
:100B4000000101010101010101010101000000009A
:100B50000001010101000000000000000000000091
:100B60000000000000000000000000000000005332
:100B7000005400550056005F006000610057005CA3
:100B8000005D005E005E5D59005A005B0058000089
:100B90000062006342000006003800605D2D002402
:100BA00000250026005F5D21002200230001001EB9
:100BB000001F0020002E0000002700370000000169
:100BC00000110016001500010001000100010001E4
:100BD000000100010001000100010001000100000E
:100BE00000010001000000010001000100010001FE
:100BF000000100010001000100005C010001000192
:100C000000010001000100000001000100000000DF
:100C100000000000000000000000000000000000D4
:100C200000000000000000000000000000000000C4
:100C30000000007E0F00D4FFFFFFC7000000780017
:100C4000000000000000002A2B2800000000000027
:100C50000000000000000000000029000000002C3F
:100C60001E3420212224342627252E362D373827DE
:100C70001E1F202122232425263333362E37381FEA
:100C80000405060708090A0B0C0D0E0F10111213AC
:100C90001415161718191A1B1C1D2F3130232D354A
:100CA0000405060708090A0B0C0D0E0F101112138C
:100CB0001415161718191A1B1C1D2F3130354CC06E
:100CC000C1C2C300B0B1B2B3009091929300C4C549
:100CD000C6C7000011241FBECFEFDAE0DEBFCDBFD4
:100CE00004B603FE27C08091090590910A05A091E2
:100CF0000B05B0910C058730904BA740B04BD1F459
:100D00001092090510920A0510920B0510920C051D
:100D100014BE84B7877F84BF0FB6F894A8958091DE
:100D20006000886180936000109260000FBEE0E078
:100D3000F8E3099511E0A0E0B1E0E4ECF7E602C0C9
:100D400005900D92A03BB107D9F725E0A0EBB1E0EB
:100D500001C01D92A930B207E1F70E94DB210C947B
:100D6000A8330C94000090910705882331F08FEF91
:100D7000890F911109C082E007C0892F90E0019688
:100D800063E070E00E944E2E8093070508959C0159
:100D9000FB019A9581159F4118F5D901AA27B270D8
:100DA000832F8170B90166277470A9014427587098
:100DB00034FF0CC08295807FAB2B09F08062672BDB
:100DC00009F08064452B09F080680994AB2B09F089
:100DD0008260672B09F08460452BB9F38860F5CFFA
:100DE00008950F931F93462F572FBC01CB01AA27BD
:100DF000BB270097A105B105E9F1AC01BD0180E178
:100E0000052F162F272F3327011511052105310531
:100E100019F0885FB901A8018A019B01F4E03695B9
:100E2000279517950795FA95D1F701151105210515
:100E3000310519F08C5FB901A8018A019B01E2E03C
:100E40003695279517950795EA95D1F70115110560
:100E50002105310519F08E5FB901A80176956795D6
:100E600057954795452B462B472B09F08F5F1F91D0
:100E70000F91089580E0C4CF80FF02C0469A089584
:100E8000469808959091B50492FF06C0282F2871C6
:100E90002830F9F4877F846093FF06C0282F2871DB
:100EA0002831F1F4877E84612091B60420FF06C0CA
:100EB000382F38713830D9F4877F816021FF06C020
:100EC000282F28712831D1F4877E816194FD877E97
:100ED0000895282F24712430F9F68B7F8860DCCFA9
:100EE000282F2471243101F78B7E8861DDCF382FC4
:100EF0003171313019F78E7F8860E0CF282F217152
:100F0000213121F78E7E8861E1CFF894E82FE295B8
:100F1000EF70F0E041A18F7021E030E0B90102C034
:100F2000660F771F8A95E2F7CB01962F9095942351
:100F300091A392A1892B82A3789408952091A30272
:100F400036E0839FC0011124629F800D911D112402
:100F5000811522E0920714F090E080E088559D4FC3
:100F60009093A7028093A60208958091A20280FD2B
:100F700002C085E1089585E00895E091A002F09116
:100F8000A102309721F00190F081E02D099480E0DA
:100F9000089520919E0230919F022817390771F021
:100FA00090939F0280939E02E091A002F091A10293
:100FB000309721F00680F781E02D09940895209163
:100FC0009C0230919D022817390771F090939D0281
:100FD00080939C02E091A002F091A102309721F051
:100FE0000084F185E02D0994089580916502909127
:100FF0006402981301C008958F5F8770FACFE92FBC
:10100000EE0FEE0FE80F8E2F877041E001C0440F06
:101010008A95EAF7E695E695E69585E0E89FF00182
:101020001124EA5BFD4F30E020E070E05191DF01D8
:101030001197CB01022E02C0969587950A94E2F78C
:10104000817081958527842385278C932F5F3F4F5F
:101050002530310559F70895E92FEE0FEE0FE80F0F
:101060009E2F9770E695E695E69585E0E89FF0015E
:101070001124EA5BFD4F50E040E080E0219130E038
:10108000092E02C0369527950A94E2F7217033277E
:10109000042E01C0220F0A94EAF7822B4F5F5F4FA4
:1010A0004530510559F70895909111019923C1F0E8
:1010B0009091B50497FF14C0E82FE695E695E69564
:1010C000803FF8F4F0E0EC54FE4F877021E030E010
:1010D00001C0220F8A95EAF78281822B82830895CC
:1010E000A6EBB1E0EFEF90E02D91821751F0EF3FCA
:1010F00019F4211101C0E92F9F5F9630A9F7EF3F46
:1011000009F408950E2E000CFF0BEC54FE4FE6CFB1
:10111000909111019923E1F09091B50497FF18C0C7
:10112000E82FE695E695E695803FF0F4F0E0EC5484
:10113000FE4F877021E030E0A90102C0440F551F27
:101140008A95E2F7CA018095928189238283089566
:10115000E6EBF1E09191891303C0DF0111971C9236
:1011600051E0EC3BF507B1F70895809159028111E8
:101170001092590208958091580290916302892B30
:1011800090915502892B8093B40190915902992333
:10119000A1F0892B8093B40180911101882341F142
:1011A0008091B50487FF24C08EE1E6EBF1E090E08A
:1011B000815000F591110E94B508E091A002F091D4
:1011C000A1023097E1F080911101882359F08091BC
:1011D000B50487FF07C08091B4018093B50185E015
:1011E0008093B4010280F381E02D84EB91E00994B7
:1011F00086E0DBCF21912223D9F29F5FD9CF0895DA
:10120000882339F090915802892B809358020C94CE
:10121000BB080895882339F090916302892B80934D
:1012200063020C94BB080895882341F08095909147
:1012300058028923809358020C94BB080895882390
:1012400041F08095909163028923809363020C940E
:10125000BB080895882309F452C0823871F40E94B3
:10126000BD0781FF4CC089E30E9454080E94BB085F
:1012700089E30E9488080C94BB08833859F40E94C3
:10128000BD0780FF3CC083E50E9454080E94BB0854
:1012900083E5EFCF843859F40E94BD0782FF2FC049
:1012A00087E40E9454080E94BB0887E4E2CF9CEFC9
:1012B000980F913AF0F290E2980F983088F4877086
:1012C00021E030E0A90102C0440F551F8A95E2F7E2
:1012D000CA01809590915802892380935802CBCF00
:1012E0009BE5980F933020F490E080E00C94C907C0
:1012F000885A873120F490E080E00C94DF0708954D
:10130000CF93DF93EC010E942A09CE01805E910900
:10131000089720F06FE179E0209711F464E179E01B
:10132000CE01DF91CF910C94C70690E080E00E943F
:10133000C90790E080E00E94DF07109263021092DC
:1013400055020C94BB0860935A0270935B02809321
:101350005C0290935D020C94950960935E02709319
:101360005F0280936002909361020C9495090F9341
:101370001F93CF93DF9300D000D0CDB7DEB741E00D
:1013800050E060E070E004C0440F551F661F771FF7
:101390008A95D2F780915E0290915F02A0916002DF
:1013A000B09161028A019B01082B192B2A2B3B2B40
:1013B00009831A832B833C83C901B8010F900F90D6
:1013C0000F900F90DF91CF911F910F910C94AD0969
:1013D00080910805813031F482E00E94B70990E0E5
:1013E00080E0089580910705813029F0823031F442
:1013F0008DEB90E008958BEA90E0089589EA90E003
:1014000008950F931F93CF93DF9300D000D0CDB7F3
:10141000DEB741E050E060E070E004C0440F551FCB
:10142000661F771F8A95D2F7409550956095709505
:1014300080915E0290915F02A0916002B091610282
:101440008A019B01082319232A233B2309831A833A
:101450002B833C83C901B8010F900F900F900F9020
:10146000DF91CF911F910F910C94AD0980910805E8
:10147000813031F482E00E94010A90E080E008951A
:1014800080910705813029F0823031F48EEB90E0B5
:1014900008958CEA90E008958AEA90E0089590918A
:1014A00062028095892380936202282F277039F485
:1014B000282F082E000C330B9217130621F490915D
:1014C000B60492FF07C08595859585950E94010A0F
:1014D00010926202089580E00895CF93DF9300D0C8
:1014E00000D0CDB7DEB78FB7F8942091410230918C
:1014F0004202409143025091440229833A834B8334
:101500005C838FBF69817A818B819C810F900F9062
:101510000F900F90DF91CF9108959C014FB7F894F1
:101520008091410290914202A0914302B091440205
:101530004FBF821B930B0895809140020895089538
:10154000FC01CB012091E6013091E7012617370716
:1015500090F0009729F42091E8002E772093E8007E
:1015600040E0009751F4411108C08091E80082FFEB
:1015700031C080E00895C901F3CF20911F022223DA
:10158000A9F12530A9F12091E80023FD2DC020917B
:10159000E80022FDEACF2091E80020FFE2CF309161
:1015A000F3002091F200009719F02830310558F02F
:1015B00041E02830310509F040E02091E8002E7725
:1015C0002093E800CECF41914093F10001972F5F27
:1015D0003F4FE9CF80911F02882341F0853041F0D1
:1015E0008091E80083FFC1CF81E0089582E00895F3
:1015F00083E008958091E00187FF13C08091E800A7
:1016000082FF06C08091E8008B778093E80004C0D9
:1016100080911F028111F2CF089580911F028823CB
:10162000D9F38091E80080FFF8CF8091E8008E77B1
:10163000ECCF2091E4003091E50095E6A9012091DE
:10164000EC00822F817020FF06C08091E80080FFAF
:1016500006C080E008952091E80022FD1AC0809124
:101660001F02882389F0853089F08091EB0085FD89
:101670000FC02091E4003091E50042175307F9F2C2
:101680009150E1F684E0089582E0089583E00895A2
:1016900081E00895E8EDF0E080818E7F80831092F4
:1016A000E2001092DA001092E100A0EEB0E08C911E
:1016B00081608C9380818F77808319BCA7EDB0E027
:1016C0008C918E7F8C9380818F7E80831092DF013E
:1016D0000895EF92FF920F931F93CF937C018B019C
:1016E0000E94190BC82F811117C08091E80085FD59
:1016F0000BC08091E8008E778093E8000E94190B60
:10170000882399F3C82F08C0F70181917F01809346
:10171000F1000150110949F78C2FCF911F910F91C2
:10172000FF90EF900895CF93DF9300D000D0CDB716
:10173000DEB780915E0290915F02A0916002B0914D
:101740006102AC01BD0146705527662777279C01D1
:10175000463051056105710591F4AD01286029837A
:101760003A834B835C8369817A818B819C810F9062
:101770000F900F900F90DF91CF910C94AD09AD01B8
:10178000277FEDCF982F9093E900242F762F50E0FC
:10179000891731F07091EC002091ED005091F0002C
:1017A00021FD06C09F5F973071F78093E90008958F
:1017B0003091EB003E7F3093EB003091ED003D7FA8
:1017C0003093ED003091EB0031603093EB0070937B
:1017D000EC002093ED005093F0002091EE0027FDE7
:1017E000E1CF0895CF92DF92EF92FF920F931F9374
:1017F000CF93DF93C8EDD0E088818F7E8883E7EDBB
:10180000F0E080818160808384E082BF81E080930A
:10181000DF0188818E7F888302EE10E0F80110825C
:101820001092DA0081EEC82ED12CF6011082888148
:101830008F77888388818068888388818F7D88837B
:1018400019BC10921F021092DE0110921E0210921B
:10185000DD0190EEE92EF12CF70180818B7F8083F2
:1018600088818160888342E060E080E00E94C20B52
:10187000F60180818E7F8083F80180818160808382
:10188000808188608083F70180818E7F808388815A
:1018900080618883DF91CF911F910F91FF90EF902E
:1018A000DF90CF90089580910605813021F08091DE
:1018B00005058823E1F16BEE74E088EF94E00E9467
:1018C000F532809113019091EB042091DE04922B6C
:1018D00041F1E8EFF4E001900020E9F79EE8980F6D
:1018E0003197923018F08E3609F080831182209162
:1018F00005052223B1F09230A0F08E3691F0E8EF8A
:10190000F4E001900020E9F745E055E04E1B5F0B45
:101910006EED74E088EF94E00E94FC3280E28093E8
:10192000130168EF74E081ED94E00E94F53280913C
:1019300013018093120167EB74E084EC94E00C9443
:10194000F532EF92FF920F931F93CF93DF9300D066
:1019500000D000D0CDB7DEB7809113018F3209F4EB
:10196000C0C008F068C08B3209F47CC08D3209F425
:101970009AC08A3209F4D3C0E12CF12C1E821D8258
:10198000E982FA82EE81EB83FD81FC8369817A81B1
:101990008B819C810E94602B69837A838B839C83DB
:1019A00069817A818B819C810E94012B69837A8372
:1019B0008B839C8369817A818B819C810E94FF2D1E
:1019C0002BE0261B283008F027E007EB14E04CE062
:1019D000E982FA828E818B83AD81AC8369817A81C1
:1019E0008B819C810E946F2EF80101900020E9F705
:1019F000CF01885B944020E0422F50E04817590700
:101A000008F4B8C02DE08150821708F0BCC087EB05
:101A100094E0FC0101900020E9F7CF01885B94403D
:101A200020E0622F70E06817790708F4B8C040E042
:101A3000E7EBF4E0C6C0823709F48FC0833709F0C2
:101A40009BCF70E060E08BEE94E00E949C2E698357
:101A50007A838B839C8369817A818B819C810E94AC
:101A60002B2C1DC070E060E08BEE94E00E949C2E59
:101A70007B018E839D8370E060E08EED94E00E9498
:101A80009C2E9B01AC01E982FA828E818B83AD8111
:101A9000AC8369817A818B819C810E946C2C7B0153
:101AA0008E839D836DCF70E060E08BEE94E00E94AA
:101AB0009C2E7B018E839D8370E060E08EED94E030
:101AC0000E949C2E9B01AC01E982FA82BE81BB83FD
:101AD000ED81EC8369817A818B819C810E946B2CE2
:101AE000DECF70E060E08BEE94E00E949C2E7B01E4
:101AF0008E839D8370E060E08EED94E00E949C2ECA
:101B00009B01AC01E982FA82FE81FB838D818C838B
:101B100069817A818B819C810E948D2DC0CF70E07C
:101B200060E08BEE94E00E949C2E7B018E839D836F
:101B300070E060E08EED94E00E949C2E9B01AC0171
:101B4000E982FA82AE81AB83BD81BC8369817A81EF
:101B50008B819C810E94B82BA2CF70E060E08BEE5D
:101B600094E00E949C2E9B01AC0160E070E080E854
:101B70009FE3D2CF49545B4FDA013C913E3209F4E6
:101B800042CF2F5F39CFE82FF0E0E954FB4F90812F
:101B9000903319F09E3209F03ACF108234CFFB0116
:101BA000E954FB4F3081303209F041CF2F5F39CFFC
:101BB00029543B4FD901A60FB71F8C91D9018C93A3
:101BC0004F5FDF010D900020E9F7CD01885B944065
:101BD000861B970B242F30E02817390748F38954C8
:101BE0009B4FFC0110820E94530C67EB74E08BEE5C
:101BF00094E00E94F5321092DE0426960FB6F89417
:101C0000DEBF0FBECDBFDF91CF911F910F91FF902F
:101C1000EF9008951F93CF93DF93182F90910605AF
:101C2000CEEDD4E0913011F0CBEED4E0FE01019086
:101C30000020E9F7AF01415051094C1B5D0B842F87
:101C400020ED210F2A3010F01E3221F5909105056C
:101C50009923D1F010920505109206051092EB041D
:101C60001092DE0480E0CBEED4E0FE01E80FF11D1F
:101C700010831182BE0187EB94E00E94F532DF9160
:101C8000CF911F910C94530C8C3079F7DF91CF9149
:101C90001F910895183731F44C0F5D1FFA013197E9
:101CA0001082E8CF133661F418821092EB04109280
:101CB000DE0480E28093130181E080930505DACF92
:101CC0001E36F9F4442311F398819D3271F4EC2F00
:101CD000FD2F91E09C1B21812193292F2E0F82172C
:101CE000D0F78EE680931301C5CF4C30D1F34F5F10
:101CF0005F4FBE01CE0101960E94E3328DE28883E0
:101D0000F0CF1D3309F445C0A0F426ED210F263095
:101D100008F0BCCF8BE201C086952A95EAF780FFD8
:101D2000B5CF911121C01093130181E08093060576
:101D3000A6CF8EE8810F823008F0A8CF913051F401
:101D400080910505811106C06EED74E08BEE94E084
:101D50000E94F53281E0809306051092DE04109314
:101D60001301809305051AC080910505882339F079
:101D700010931301109205051092DE0480CF80911C
:101D8000DE0481110E94A10C1092DE041093130155
:101D900076CF913009F07ACF90930505DF91CF91FE
:101DA0001F910C94A10CCF93C82F882309F4A6C0CF
:101DB0008238C1F40E94BD0781FDA0C089E30E9462
:101DC00054080E94BB082FEF31EE84E021503040D0
:101DD0008040E1F700C0000089E30E948808CF91AD
:101DE0000C94BB088338A1F40E94BD0780FD86C017
:101DF00083E50E9454080E94BB089FEF21EE34E067
:101E0000915020403040E1F700C0000083E5E5CF6D
:101E10008438A1F40E94BD0782FD70C087E40E944F
:101E200054080E94BB088FEF91EE24E0815090404F
:101E30002040E1F700C0000087E4CFCF8CEF8C0F8B
:101E4000813A90F580911101882301F18091B504C8
:101E500087FF1CC0EC2FE695E695E695F0E0EC5484
:101E6000FE4F828190E04C2F477021E030E002C0AD
:101E7000220F331F4A95E2F782239323892B81F0A7
:101E80008C2F0E9488080E94BB080AC0E6EBF1E094
:101E90008CEB91E02191C21799F38E179F07D1F730
:101EA0008C2F0E9454089BCF80E28C0F883068F4FE
:101EB000C77021E030E001C0220FCA95EAF7809197
:101EC0005802822B809358028ACF8BE58C0F833087
:101ED00038F42C2F2452330BC901CF910C94C9072D
:101EE000C85AC73158F4EC2FF0E0EE0FFF1FEE5741
:101EF000FE4F80819181CF910C94DF07CF9108959F
:101F0000CF93DF93EC01805E9109089720F06AE09F
:101F100079E0209711F460E079E0CE010E94C706D5
:101F20008C2FDF91CF910C94D30E0F931F93CF93EF
:101F3000C82F10E000E0893311F400E510E08C2F89
:101F40000E94D30E0115110531F48C2FCF911F91F2
:101F50000F910C942A098FE99FE00197F1F700C0D7
:101F6000000001501109EECFAF92BF92CF92DF92E5
:101F7000EF92FF920F931F93CF93DF93EC018AE0D0
:101F8000A82E8881882309F48EC08130D9F59981E3
:101F90008A81913021F422960E94950F05C09230DB
:101FA00029F422960E94D30E2196EBCF933021F490
:101FB00022960E942A09F8CF943011F02196F4CF8E
:101FC000229620E030E0AE014F5F5F4F8053990BC7
:101FD0008A30910560F02115310531F38FE99FE0DA
:101FE0000197F1F700C0000021503109F4CFA29E03
:101FF000B001A39E700D11249C01260F371F89810B
:10200000EA01E1CFE82FF0E0E15CF34FB490282F34
:1020100026952695269530E0F901E15DF34FE49091
:102020008770F12C082E02C0F594E7940A94E2F729
:1020300091E0E922FF24F901E15EF34FC490D12C35
:10204000082E02C0D594C7940A94E2F791E0C92201
:10205000DD24F901E15FF34F049110E002C0159512
:1020600007958A95E2F701701127E114F10419F040
:1020700081EE0E94D30EC114D10419F086EE0E94A5
:10208000D30E8B2D0E94950FCD2819F086EE0E945D
:102090002A09EF2819F081EE0E942A09012B09F480
:1020A00083CF8CE279CFDF91CF911F910F91FF9079
:1020B000EF90DF90CF90BF90AF90089581E0809334
:1020C000E00080E28093D8001092C9008FE19EE486
:1020D0000197F1F700C0000087E090EBDC018093EE
:1020E000090590930A05A0930B05B0930C0588E1B0
:1020F0009CE00FB6F894A895809360000FBE909373
:102100006000FFCFCF93DF93D82FC92F80911101AB
:102110008823C1F18091B50487FF34C060E284E078
:102120008093E9008FEF9091E800815095FD06C003
:1021300095ED9A95F1F700008111F5CF8091E800B7
:1021400085FF1DC08091110170E050E040E08111D9
:1021500004C050E040E068E070E08D2F9C2F0E94AA
:10216000690B8091E8008E778093E80080E2ED2F84
:10217000FC2FA0E2B2E001900D928A95E1F7DF9189
:10218000CF91089568E081E0CBCFCF93DF9300D06B
:102190000F92CDB7DEB790911F02943011F589836D
:1021A0006A837B839093E9008FEF9091E8008150E0
:1021B00095FD06C095ED9A95F1F700008111F5CFD8
:1021C0008091E80085FF0DC050E040E063E070E0E2
:1021D000CE0101960E94690B8091E8008E77809372
:1021E000E8000F900F900F90DF91CF910895BC0100
:1021F00083E00C94C510BC0184E00C94C5100F93CF
:102200001F93CF93DF9328E0629FE001112450E0F9
:10221000440F551FC40FD51F38E2839FC00DD11D39
:102220001124CE0187960E941533082F10E0102F3D
:102230000027CE0188960E9415339801282BC901EA
:10224000DF91CF911F910F910895462F672F753021
:1022500030F4982F942B943010F40C94FF1090E0ED
:1022600080E00895CF93DF930E942511EC01803E1A
:10227000910509F45EC048F58133910509F4A1C0C8
:1022800088F48932910509F495C08A9709F4A0C0B1
:10229000C130D10529F1CE010497813A910508F0AA
:1022A00054C01EC089339105E9F182389105D1F1FE
:1022B000C59709F478C0C83AD10508F090C0C53A6E
:1022C000D10530F3A497D0640BC0843E910509F486
:1022D0004FC050F4823E9105D9F1833E9105E9F15A
:1022E000CE01DF91CF910895863E910509F44BC050
:1022F000873E910509F44CC0811523E5920708F04B
:102300008BC0811532E5930708F0FDC0C11580E54B
:10231000D80708F077C0C11520E4D20760F2DF705B
:10232000D06ADECF8091B5048370D1F2C0EED0E0E8
:10233000D7CF8091B50480FD11C19091B60490FF74
:10234000CFCFC3EED0E084FFCBCFD0E0C0E0C8CF8A
:102350008091B50482FDF5CFC3CF8091B50482FD95
:1023600000C19091B60490FDE1CF84FFB9CFEDCFCD
:102370008091B60481FFB4CF8091B504C7EED0E060
:1023800084FDE3CFADCF8091B50483FDF7CFA8CF17
:102390008091B50483FDE8C09091B60491FFE5CF2C
:1023A000C4EED0E09DCF8091B50485FF99CFC9E2FE
:1023B000D0E096CF8091B50485FF92CFC5E3D0E001
:1023C0008FCF8091B50486FF8BCFCAE2D0E088CF53
:1023D0008091B50486FF84CFC1E3D0E081CFCF3BAD
:1023E000D10508F468C0C83ED10528F4C03ED10527
:1023F00008F4ABCF75CFCE019A9581159F4108F0B7
:10240000A4CF6ECFC11581E5D80708F45FC0DC2FDB
:10241000CC27C16FD06A64CF811529E59207A0F55A
:10242000811538E5930708F086C0C11585E5D80702
:10243000C8F4C11524E5D20708F078C09E012370C6
:10244000332781E090E002C0880F991F2A95E2F7B8
:10245000C695C69530E2C39FE0011124C82BD92B45
:10246000DA683ECFCE0195558F3F910511F008F007
:102470006CCF8C2F0E944207C82FD0E0DC2FCC27D6
:10248000CC27DF71D0622CCFC1158AE5D80708F4BC
:1024900057C0CE0190568115904208F056CF8D2F2F
:1024A0008F710E94420790E0982F882788279F719C
:1024B0008C2BEC01E7CFC85AD0E0CC0FDD1FCE57F4
:1024C000DE4F0990D881C02DD4640ACF9E0174E0FC
:1024D000369527957A95E1F723708C2F869586950A
:1024E000837030E2839FC0011124922BC37021E0DE
:1024F00030E002C0220F331FCA95E2F7822B932BE4
:10250000EC01DC68EDCE9C012370332781E090E084
:1025100002C0880F991F2A95E2F7C695C69520E25A
:10252000C29FE0011124C82BD92BEBCFDC2FCC2785
:10253000C46FD06AD5CED82FCC27C06FD06AD0CE8A
:102540008C2F8F700E94420734E0D695C7953A953C
:10255000E1F7CF709C2FEC01D069C2CEC9E3D0E087
:10256000BFCEC2EED0E0BCCEC6EED0E0B9CEBF92B8
:10257000CF92DF92EF92FF920F931F93CF93DF934F
:102580008C01C0905E02D0905F02E0906002F090FB
:10259000610280915A0290915B02A0915C02B0911D
:1025A0005D02C82AD92AEA2AFB2ACFE1D0E0BC2E54
:1025B000D701C6010C2E04C0B695A79597958795AF
:1025C0000A94D2F780FD0EC0219788F7B12C8B2D8D
:1025D000DF91CF911F910F91FF90EF90DF90CF90FF
:1025E000BF900895B8018C2F0E943211019761F3BA
:1025F000EECF0F931F93CF93FC0182810081118155
:10260000882389F0662379F0C8010E94B712C82F89
:10261000682FC8010E94FF07B8018C2FCF911F912E
:102620000F910C942511C8010E942C08C82FF4CFDB
:10263000CF93DF93D82FC92F0E94B7126D2F7C2F15
:10264000DF91CF910C9432110E941813282F892FFB
:102650008F70392F32953F70903C80F43A30B0F44F
:10266000343020F4323090F480E008953630E1F7D1
:1026700081E0283E88F0213FB9F70EC03C3011F0D0
:102680003F3091F7869586958695089581E0203FA5
:1026900039F018F4283E40F70895243F29F7FCCF7D
:1026A0000895CF9384E090E00E941533C82F82E212
:1026B00090E00E941533982F8C2FCF9108952F9280
:1026C0003F924F925F926F927F928F929F92AF92C2
:1026D000BF92CF92DF92EF92FF920F931F93CF930F
:1026E000DF93B12CA12C712C612C38E2C32ED12C9C
:1026F000E601A89723011BC0F70185909490692DEE
:10270000C8010E942333682DC80101960E9423331B
:1027100022E0E20EF11C0E5F1F4F2016310661F71A
:10272000289634E0430E511CCC16DD0679F0C20128
:10273000880F991F9C012159344F79018E01095D41
:102740001F4F1E013FE2230E311CD6CF88E2C80E78
:10275000D11C24E1620E711C35E0A30EB11C84E192
:10276000A816B10429F6DF91CF911F910F91FF9028
:10277000EF90DF90CF90BF90AF909F908F907F9021
:102780006F905F904F903F902F900895CF93DF937D
:10279000C7ECD0E060E0CE010E9423332196C11542
:1027A00084E0D807B9F7DF91CF910895CF93C09116
:1027B000B604C2FB992790F9981781F080FBC2F903
:1027C000C093B6046091B50484E090E00E94233386
:1027D0006C2F82E290E0CF910C942333CF91089537
:1027E000E8EAF2E080E092E0DF019C011D922150D6
:1027F0003040E1F7F093A702E093A6028FEF9FEF3E
:102800009093A5028093A40208951092580280919B
:102810001101E6EBF1E0882359F08091B50487FFC0
:1028200007C08EE1DF011D928A95E9F70C949509A6
:1028300086E0F8CF1F93CF93DF93CDB7DEB7AA978B
:102840000FB6F894DEBF0FBECDBF80EE91E0FC0165
:1028500001962091F100208321E0883E9207B9F78C
:102860008091E101893009F456C0C8F4823009F43E
:10287000B2C0833009F481C0813071F18091E800E9
:1028800083FF81C28091E0019091E1019A3008F0CC
:102890007AC2E92FF0E0E655FC4C0C94622E8A30A7
:1028A00009F488C08B3051F78091E001813231F713
:1028B0008091E4019091E501892B01F78091E80076
:1028C000877F8093E8000E94FA0A8091E20180935A
:1028D00011010E940514D2CF8091E001813A71F676
:1028E0008091E800877F8093E8008091E4019091D7
:1028F000E501892B61F460E280E292E070E00E94E1
:10290000A00A8091E8008B778093E800B7CF60E061
:1029100090E080E0F3CF8091E001813209F0AECF0A
:102920008091E4019091E5018D7F892B09F0A6CF7C
:102930008091E800877F8093E8008091E80082FF23
:1029400017C09091F3008091F200029729F48091D2
:10295000F1008B7F813021F48091F100809340025F
:102960008091E8008B778093E8000E94FA0A86CF76
:1029700080911F028111E1CF81CF8091E001813AE6
:1029800009F07CCF8091E4019091E501892B09F059
:1029900075CF8091E800877F8093E8008091E80000
:1029A00080FFFCCF809111018093F1008091E800BD
:1029B0008E77D9CF8091E001813209F05FCF80918D
:1029C000E800877F8093E8000E94FA0A8091E30183
:1029D0008093DC0153CF8091E001813A09F04ECF22
:1029E0008091E800877F8093E8008091E80080FF75
:1029F000FCCF8091DC01D8CF803899F0823809F083
:102A0000C2C18091E4018F70873008F0BCC180930F
:102A1000E9008091EB0085FB882780F91092E9009E
:102A200006C08091DD0190911E029111826090910B
:102A3000E800977F9093E8008093F1001092F100F6
:102A40008091E8008E779BC1882309F489C1823088
:102A500009F099C18091E20181118CC18091E4015A
:102A60008F702FEF280F263008F08DC18093E9007A
:102A70002091EB0020FF7EC1933031F48091EB0078
:102A800080628093EB0076C19091EB00906190930F
:102A9000EB0021E030E001C0220F8A95EAF7209395
:102AA000EA001092EA008091EB008860EACF811181
:102AB0006AC11091E2011F778091E3008078812B39
:102AC0008093E3008091E800877F8093E8000E9474
:102AD000FA0A8091E80080FFFCCF8091E3008068D3
:102AE0008093E30082E0111183E080931F024BC1C9
:102AF0008058823008F047C14091E2015091E301D3
:102B00004C3D83E0580799F583E08A838AE2898304
:102B10004FB7F894DE01139620E03EE051E2E32F38
:102B2000F0E050935700849120FF03C082958F708E
:102B30003F5F8F708A30C8F0895C90E08D939D93E1
:102B40002F5F243161F74FBF8091E800877F80932A
:102B5000E8006AE270E0CE0101960E94A00A80912E
:102B6000E8008B778093E8000EC1805DE6CF80910E
:102B7000E4019091E501252F33272330310509F435
:102B80004AC078F52130310509F479C08BE590E031
:102B9000EEE4F8E02230310509F0F5C02091E800BC
:102BA000277F2093E8002091E6013091E70182170A
:102BB000930708F49C0140E02115310509F064C039
:102BC000411162C08091E80082FDC9CF80911F024F
:102BD000882329F2853019F28091E80083FFF2CF33
:102BE000BECF2132310509F43BC02232310509F054
:102BF000CAC08330910508F0C6C0FC01EE0FFF1F6C
:102C0000E55EFE4F0190F081E02D885E9E4FDC0175
:102C10008C9190E011C0CA019927413089F082302F
:102C20009105B1F0892B09F0AEC0EBEDF8E0E4912D
:102C30008E2F90E0EBEDF8E0009709F4A4C0AECF42
:102C4000E7ECF8E0E4918E2F90E0E7ECF8E0F4CFC9
:102C5000EBEBF8E0E4918E2F90E0EBEBF8E0ECCFBB
:102C60008330910508F08FC0880F991FFC01EF5D3C
:102C7000FE4F0190F081E02D89E090E08FCF82E15E
:102C800090E0E9EAF8E08ACF80911F02882309F4F6
:102C900066CF853009F463CF8091E80083FD5FCF74
:102CA0008091E80082FD8ECF8091E80080FF84CF84
:102CB0009091F3008091F2002115310519F08830D0
:102CC000910550F041E0089709F040E08091E8005C
:102CD0008E778093E80070CF44914093F100319655
:102CE000215031090196E8CF803809F04CC080911D
:102CF000E800877F8093E8008091DE018093F100F7
:102D00009FCE811140C01091E2011230E0F5809118
:102D1000E800877F8093E8001093DE010E94FA0AA2
:102D2000112311F084E005C08091E30087FDFACF04
:102D300081E080931F0242E061EC81E00E94C20BBF
:102D400042E261EC84E00E94C20B42E261EC82E06C
:102D50000E94C20B42E260EC83E00E94C20B13C0EF
:102D60008091E201813079F481E0933009F080E0D4
:102D700080931E021092E9008091E800877F809383
:102D8000E8000E94FA0A8091E80083FF0AC080915F
:102D9000E800877F8093E8008091EB008062809359
:102DA000EB00AA960FB6F894DEBF0FBECDBFDF9141
:102DB000CF911F9108956AEE7EEF90E080E00E942F
:102DC000413360E082E090E00E94233360E083E0E2
:102DD00090E00E94233310925A0210925B021092EC
:102DE0005C0210925D0260E084E090E00E94233378
:102DF00060E082E290E00E94233360E085E090E0B2
:102E00000E94233360E086E090E00E9423336FEF5E
:102E100087E090E00E94233340E050E0BA0188E070
:102E200090E00E94353360E08DE090E00E94233313
:102E300040E050E0BA0188E190E00E94353360E064
:102E400087E190E00E94233340E050E0BA018CE13A
:102E500090E00E94353370E060E080E290E00E94F4
:102E6000413340E050E0BA0188E190E00E94353300
:102E700040E050E0BA018FE090E00E94353340E03E
:102E800050E0BA0183E190E00C943533CF92DF92A9
:102E9000EF92FF920F931F93CF93DF936C017B010F
:102EA00064E670E088E70E94142AEC018601EC0CCD
:102EB000FD1C97FD0EC0F801849164E670E00E944D
:102EC000702AEC01892B29F40F5F1F4FE016F106E1
:102ED00091F70E94FD2ACE01DF91CF911F910F91B2
:102EE000FF90EF90DF90CF90089580911602882395
:102EF00071F080911502882351F062E070E08CE05F
:102F000093E00E944617892B11F410921502089540
:102F1000CF93DF9300D000D0CDB7DEB780911602FB
:102F20008823F9F00E946D0ADC01CB01805A95419B
:102F3000AF4FBF4F8093110290931202A0931302E0
:102F4000B09314028091150281110BC062E070E011
:102F50008AE093E00E944617892B19F481E0809360
:102F600015020F900F900F900F90DF91CF91089561
:102F7000CF93DF93682F8091A6029091A7026A30C9
:102F8000B9F42091A302885A9240622F70E00E9407
:102F90003A2E281B822F66E00E942E2EC82FC15089
:102FA00018F4DF91CF91089580E20E94B817F7CF0F
:102FB0006D30F9F49C01285A32404091A302642FED
:102FC00070E0C9010E943A2E481B842FA901480FC6
:102FD000511D4115524018F080E030E020E0820F92
:102FE000932F911D88559D4F9093A7028093A60221
:102FF000D8CF26E0FC01A6EDB1E001900D922A9514
:10300000E1F7603E08F458C026E0FC0111922A95D1
:10301000E9F7C091A602D091A70246E050E0BE01B8
:1030200086ED91E00E94D6329E01285A3240892BCB
:1030300041F1C90145E0969587954A95E1F741E050
:1030400050E0BA0102C0660F771F8A95E2F7CB0104
:103050006091A4027091A502862B972BB9016B5F3A
:103060007F4FE5E076956795EA95E1F702C0440F5A
:10307000551F6A95E2F7842B952B9093A5028093B8
:10308000A4022A5F3F4F4091A302642F70E0C90160
:103090000E943A2E481B463010F4240F311D211592
:1030A00072E0370710F030E020E028553D4F3093B4
:1030B000A7022093A60275CFF6E06F9FB0011124FE
:1030C000625F7C4F46E050E00E945230A2CF0F93E7
:1030D0001F93CF93DF93EC01FC0101900020E9F7EF
:1030E0008F0101501109C017D10728F0DF91CF914E
:1030F0001F910F91089589910E94B817F4CFCF9333
:10310000DF93EC01FE018491811103C0DF91CF9127
:1031100008950E94B8172196F5CF8091080560E0C8
:10312000813079F480E00E949E078EEC9CE00E9442
:103130007F1861E080E00E949E0789EC9CE00C947F
:103140007F1880E00E949E0784EC9CE00E947F181C
:1031500061E080E00E949E078FEB9CE0F0CF1F9221
:103160001FB61F9211248F939F93AF93BF938091AB
:103170004502811113C08091410290914202A091B9
:103180004302B09144024196A11DB11D80934102BA
:1031900090934202A0934302B0934402BF91AF9137
:1031A0009F918F911F901FBE1F9018952FB7F89475
:1031B0008091410290914202A0914302B091440259
:1031C0002FBF0895AF92BF92CF92DF92EF92FF92FE
:1031D0000F931F93CF93DF93C9E7D1E080EBC82E05
:1031E00084E0D82E9EE7E92E91E0F92EB12C01E083
:1031F00010E08991F894E82FE295EF70F0E021A1BA
:103200008F70A80102C0440F551F8A95E2F7CA01CA
:10321000922F982B91A392A18095892382A37894D1
:1032200000C0EEE7F1E030E020E0A12C4191A42FB6
:10323000A295AF70A05EB0E08C9190E04F7002C09C
:10324000959587954A95E2F780FD40C0802F022E24
:1032500001C0880F0A94EAF7A82A2F5F3F4F243055
:10326000310521F7FE01319780810E94850750EAE0
:103270005A95F1F7F60181916F01A81649F131973E
:10328000A08281E0B82AEC16FD0609F0B2CFBB207F
:1032900009F181E08093AA040E94D6189093A904B2
:1032A0008093A8048091A8049091A9040E948D0A9B
:1032B0000697A0F085E0E0EBF4E0ABEAB4E0019023
:1032C0000D928A95E1F71092AA0408C080E0C4CF5D
:1032D00080E0D8CF8091AA048111E4CF8B2DDF91BB
:1032E000CF911F910F91FF90EF90DF90CF90BF9003
:1032F000AF900895FF920F931F93CF93DF93C62F44
:10330000D42F122F8823A9F0609356020E94D6185A
:103310009093D5018093D401C77081E001C0880FDC
:10332000CA95EAF7DF91CF911F910F91FF900C940E
:10333000000980915602681334C08091D4019091A5
:10334000D5010E948D0A883C910558F500E20D0FC9
:10335000CD17A9F0C770FF24F3948F2D01C0880FFB
:10336000CA95EAF70E941409083048F48D2F877037
:1033700001C0FF0C8A95EAF78F2D0E940009812F6A
:103380000E94950F0830A0F4D77081E001C0880F2B
:10339000DA95EAF7DF91CF911F910F91FF900C948E
:1033A0001409C77081E001C0880FCA95EAF7F2CF0F
:1033B000DF91CF911F910F91FF900895AF92BF922F
:1033C000CF92DF92EF92FF920F931F93CF93DF93F1
:1033D000CDB7DEB728970FB6F894DEBF0FBECDBFCE
:1033E0007C01DC019C9111968C91119713962D9183
:1033F0003C91232B21F089238F3F09F055C5289656
:103400000FB6F894DEBF0FBECDBFDF91CF911F91F5
:103410000F91FF90EF90DF90CF90BF90AF90089505
:10342000980122513F452031310508F021C58FEF29
:1034300093E00E941533025127ECC22ED12C882331
:1034400049F1809162028770D1F2D70112968C9176
:103450008823A9F282E028960FB6F894DEBF0FBE4B
:10346000CDBFDF91CF911F910F91FF90EF90DF9033
:10347000CF90BF90AF900C944F0AC114B4E0DB061C
:1034800001F3C6010E941533811101C00150EFEF15
:10349000CE1ADE0A0111F1CF80911401909115012D
:1034A000A0911601B091170189839A83AB83BC83E5
:1034B000BB24B39486010F5F1F4FC6010E941533D2
:1034C00089831A82882309F4BCCF9FEF980F933029
:1034D00088F48A83B982F2E0CF0ED11CC8010E9421
:1034E00015338B83882309F4ACCFCE0101960E945B
:1034F000B40FE0CF6801F9CF81E00E94B7090E94C4
:10350000930B9FCF81E00E94010AF9CF82E0F5CFB3
:103510000F352DE5120709F4B6C010F50E354DE54F
:10352000140709F469C0033F7CE5170709F4C1C01B
:1035300008F04FC0083DACE51A0709F4B6C028E210
:1035400041E0093DBCE51B0709F4B1C026E241EEAC
:1035500061EE073DECE51E0769F40E947A1971CF10
:1035600000365DE5150709F493C001366DE51607D1
:1035700009F493C0882309F4ACC4109256020631B2
:103580005CE5150708F0A1C002306CE5160708F4E9
:10359000E1C10E9451139093B6048093B5040631A3
:1035A0007CE5170708F0BEC002308CE5180708F06C
:1035B000ACC06091B5041091B60484E090E00E9424
:1035C0002333612F82E290E00E9423330E9405148E
:1035D00038CF053FFCE51F0709F46FC0063F2CE517
:1035E000120709F46EC027E245EE64EE043F3CE5A5
:1035F000130709F4B2CFBECF882309F422CF40913C
:103600005E0250915F0260916002709161024D8391
:103610005E836F837887CB01BA010E94F106813007
:1036200059F480910805813019F483E00E94B709AC
:1036300081E00E94010A05CF823069F4809108057B
:10364000813039F40E94010A83E00E94B70982E0C8
:10365000F0CF81E0FACF833039F4809108058230D1
:1036600009F0EFCE83E0E5CF8091070508EA10E08E
:10367000813011F40EEA10E0C8010E94800FC801E9
:103680000E948009DECE882309F4DBCE8BE209C4D8
:10369000882309F4D6CE8AE204C4882309F4D1CE63
:1036A00084EC94E00E94B40FCCCE27E245EE65EEA8
:1036B00054CF26E241EE60EE50CF26E241EE62EEBC
:1036C0004CCF27E245EE66EE48CF98012A5F3C4595
:1036D0002930310508F45DCF06319CE5190709F062
:1036E000C8C090915802882309F4B9C0892F8A7AFA
:1036F00091E009F490E0909357028111AEC089E205
:103700000E9454080E94BB089CCEF801E350FC457F
:103710008091B5048160E331F105B8F4EC54FC4CC0
:103720000C94622EC8018A5F9C45099708F041CF2E
:10373000F801EB5FFC45E830F10590F4E953FC4CEF
:103740000C94622E8091B50482608093B50431CFD1
:103750008091B5048460F9CF8091B5048860F5CF7D
:103760008091B60481608093B60423CF8091B60423
:103770008260F9CF8091B5048061E7CF8091B50474
:103780008062E3CF8091B5048064DFCF0E9405148E
:103790008091B5048068D9CF8091B5048C60D5CF75
:1037A0008091B6048360DFCF8091B5048E7FCDCF4A
:1037B0008091B5048D7FC9CF8091B5048B7FC5CF33
:1037C0008091B504877FC1CF8091B6048E7FCBCF27
:1037D0008091B6048D7FC7CF8091B5048F7EB5CF21
:1037E0008091B5048F7DB1CF8091B5048F7BADCF33
:1037F0000E9405148091B5048F77A7CF8091B504FE
:10380000837FA3CF8091B6048C7FADCF8091B50428
:1038100082FB992790F921E0922790FB82F990FB97
:1038200083F993CF8091B604982F909591708E7FF5
:10383000892B90FB81F997CF0E9405149091B504D4
:10384000892F97FB87F9805880CF61E08EE090E068
:103850000E942333AECE60E0F9CF85E351CF809153
:103860005702811104C089E20E9488084BCF85E38A
:10387000FBCF0A35ADE51A0709F493C008F07CC008
:103880000E3D1C4509F48AC0F7018281C080D180B9
:10389000882309F48AC0C6010E94B712182F682F26
:1038A000C6010E94FF07B601812F0E9432118C01D0
:1038B000D7011296BC9012971596AC90A2949FE0F7
:1038C000A922809162028770A1F0CB2CBB2091F0DD
:1038D000812F807F803421F080E2800F883048F093
:1038E00082E00E944F0A809162028770CC24C394C8
:1038F0008111C12CD12ED2948FE0D822B8E0DB16F2
:1039000009F439C1BD1508F48DC0E3E0ED1508F4E4
:1039100051C0812F807F1F70F1E0FD1508F094C029
:10392000803211F01295107F002309F4C7C00130D6
:1039300009F4E9C0BB2009F4F3C0AA2009F4E9C0E6
:10394000D70115968C91159780FF93C08F701596AF
:103950008C93DFC00115ECE51E0709F091CF0E94A2
:1039600005144FEF54E36CE0415050406040E1F7E4
:1039700000C000000E945E100B352DE5120799F083
:103980000C351D4509F080CF8091B60482FB882755
:1039900080F991E089270E94D61376CF0E94DB162A
:1039A00050CD81E0F8CF80E0F6CFC6010E942C0810
:1039B000182F79CF24E0D21609F4C3C0AD2DA8503A
:1039C000BB0B149720F40E94BD070E943C07CC203B
:1039D000A9F08091620280FD11C0F70112828595E5
:1039E000859585950E94B709C7010E94DE198091CF
:1039F00062028595859585950E94010A60E0C70160
:103A000028960FB6F894DEBF0FBECDBFDF91CF91E1
:103A10001F910F91FF90EF90DF90CF90BF90AF90EC
:103A20000C94F91239E0D31609F4A2C186E08D0D89
:103A30008F70823018F6023F09F0A9C1812F8F7173
:103A4000BB2009F4E2C1A0C1882311F01295107FB8
:103A5000BB20C9F0112369F080E2800F883010F09C
:103A600001110BC080915802812B809358020E9453
:103A7000BB08802F0E94D30EA1CF80916302812BBF
:103A800080936302F4CF802F0E942A09112309F446
:103A900095CF109580E2800F883010F0011108C09A
:103AA000809158028123809358020E94BB0886CFE0
:103AB00080916302812380936302F7CFBB20B1F032
:103AC00090915902812F892BA11003C00E940009F7
:103AD00075CF41E0A412FACF2091B60422FD6ECF3B
:103AE000891709F46BCF8093590268CFA11006C0E3
:103AF0000E94B508812F0E94140960CF51E0A516DD
:103B000009F45CCFF5CFBB2031F065E06A1508F40D
:103B100055CF812FDBCF74E07A1508F44FCFEACF71
:103B2000AA2041F3093349F4BFEFE7EEF3E0B150C7
:103B3000E040F040E1F700C00000802F0E942A0919
:103B40003DCF812F86958695837061F0813009F095
:103B500035CFC8019370B11002C090E080E00E94A0
:103B6000DF072CCFC8019370B11002C090E080E055
:103B70000E94C90723CF812F837009F07AC0B1104A
:103B80001DCF202F229526952770220F220F402F20
:103B90004F7050E070E060E0022E04C0440F551FEB
:103BA000661F771F0A94D2F780E090E0DC0104FFE3
:103BB0000FC08FE090E0A0E0B0E004C0880F991F34
:103BC000AA1FBB1F2A95D2F780959095A095B09516
:103BD000E12FE695E695E370E23059F1E33009F420
:103BE00041C000915A0210915B0220915C02309119
:103BF0005D02E13099F0842B952BA62BB72BAC01FD
:103C0000BD0140235123622373234D835E836F8361
:103C10007887CB01BA010E94A309D0CE042B152BC3
:103C2000262B372BB901A801482B592B6A2B7B2B4C
:103C3000ECCF842B952BA62BB72B40915A02509199
:103C40005B0260915C0270915D028C019D01042712
:103C50001527262737270D831E832F833887C90111
:103C6000B801D9CF8A019B01082B192B2A2B3B2B9A
:103C7000F2CFBB2009F44CC010FFA0CE202F22951C
:103C800026952770220F220F402F4F7050E070E0D2
:103C900060E0022E04C0440F551F661F771F0A9470
:103CA000D2F780E090E0DC0104FF0FC08FE090E0ED
:103CB000A0E0B0E004C0880F991FAA1FBB1F2A957F
:103CC000D2F780959095A095B095E12FE695E69571
:103CD000E370E23059F1E330E1F100915E021091BE
:103CE0005F022091600230916102E130A1F0842BEB
:103CF000952BA62BB72BAC01BD014023512362238A
:103D000073234D835E836F837887CB01BA012DC007
:103D100011FF54CEB3CF042B152B262B372BB90113
:103D2000A801482B592B6A2B7B2BEBCF842B952B8F
:103D3000A62BB72B40915E0250915F02609160020A
:103D4000709161028C019D010427152726273727D2
:103D500006C08A019B01082B192B2A2B3B2B0D83B4
:103D60001E832F833887C901B8010E94AD0926CE72
:103D70001F70BB2029F0812F0E94B709802FA6CE8B
:103D8000802F0E941409812F0E94010A17CE033F41
:103D900060F4003F11F1013F99F1BB2009F458C0D4
:103DA000A11067CE812F8F7130C0033F89F1043F8E
:103DB000A1F7BB2009F441C01F71812F0E94B709F0
:103DC0008091B60482FD07C058E0159FC001112400
:103DD000836080936202812F18C025E0B11024E037
:103DE0002A1508F4EBCD1F7181E090E0A0E0B0E06F
:103DF00004C0880F991FAA1FBB1F1A95D2F79ACF2C
:103E0000812F8F71BB2009F4BFCF0E94B709D6CD97
:103E100060E070E0CB01BB2009F4A7CF1F7181E007
:103E200090E0A0E0B0E0AC01BD0104C0440F551F1C
:103E3000661F771F1A95D2F764CF81E00E944F0A60
:103E400061E06A1508F0BACD82E00E944F0AB6CD53
:103E5000AA2059F0093309F070CE7FEF87EE93E086
:103E6000715080409040E1F766CE812F8F718CCFEA
:103E70000031FFE51F0709F43FCB01312FE51207A1
:103E800009F444CB0A33110508F042CB0B3211057B
:103E900009F470CB882309F4D4CAF801E15CFE4F21
:103EA00080810E940A0ECDCA61E0C7010E94F9120A
:103EB0008C01D70112968C918111B2CA00313FE575
:103EC000130709F41FCB01314FE51407D9F682E03F
:103ED0001ACB06311C4509F404CCD6CC1F93CF93E2
:103EE000DF9380919B02807FA9F4809198028823C0
:103EF00089F080916502C091640270919602609190
:103F00009702A0919902B0919A02D62FD72316E07A
:103F1000C81304C0DF91CF911F91089590E01097CE
:103F200011F0DF3F19F401968770F2CF189F9001CE
:103F3000199F300D1124F901EA59FD4F4181641395
:103F4000F2CF40814713EFCF42814111ECCF438143
:103F500054814A1B5B0B483C510528F780919B021A
:103F60008F70806180939B02F901E559FD4F80813C
:103F70008F708061808386E992E00E94DE19DF9174
:103F8000CF911F910C94F5078F929F92AF92BF92A1
:103F9000DF92EF92FF920F931F93CF93DF93CDB7F2
:103FA000DEB72B970FB6F894DEBF0FBECDBF8C01E6
:103FB00085E0F801DE01179601900D928A95E1F7F0
:103FC000F801E28030812181A380B48086E9882EC7
:103FD00082E0982E809196029091970240919902EA
:103FE00050919A024115510529F0682F69236F3FBE
:103FF00009F01AC1EE2009F425C18F8198850E942D
:104000002413F82E882309F41DC186E0F801A6E9DF
:10401000B2E001900D928A95E1F70E946E1F1EC0DA
:10402000D0909B026D2D607F483C510508F0A3C0E5
:104030006111BFC0FE2C291324C0831322C0E110DC
:1040400020C08D2D8F70806180939B0286E992E065
:104050000E94DE1980919B02F80185838F2D2B969B
:104060000FB6F894DEBF0FBECDBFDF91CF911F9189
:104070000F91FF90EF90DF90BF90AF909F908F9047
:104080000895AB2829F0822F83238F3F09F08EC03B
:1040900080E0F82FF170DF2EE0916502409164021C
:1040A00056E080FD1CC0EE20C9F280919B02816029
:1040B00080939B02F12CD2CF8E2F90E05E9FF00177
:1040C0001124EA59FD4F6181261306C06081361321
:1040D00003C062816E11E7CF0196E82FE770E41309
:1040E000EBCF8F8198850E941813292F22952F706E
:1040F000903260F0225F2F70223078F49F7051F080
:10410000F8019581907F31F4D12C0AC09F7011F095
:104110008823D1F3805E8830B8F3C8010E94DE198D
:10412000FD2C9CCF8F8198850E942413882309F44D
:1041300089C0EE2009F486C080919B02803270F025
:1041400080919602909197029A8389831B82BD8207
:10415000AC82DE82CE0101960E94DE1986E0F80173
:10416000A6E9B2E001900D928A95E1F70E946E1FD8
:10417000FF24F39473CF611130C086E992E00E946E
:10418000DE1986E0F40111928A95E9F793CF8F81C9
:1041900098850E9424138111E1CF80919B02816058
:1041A00080939B02C8010E94DE1958CF81E08E25C2
:1041B00070CF2913B7CF8313B5CFE110B3CFF80178
:1041C000D582C8010E94DE1986E0F801A6E9B2E0B6
:1041D00001900D928A95E1F741CF2913A3CF831364
:1041E000A1CFE1109FCFF801D582C8010E94DE194E
:1041F00086E0F40111928A95E9F730CF2913C7CFF1
:104200008313C5CF80919B0280FDDECF982F907FD6
:10421000D9F2F8018583903FA1F2982F907F905FAB
:104220008F70892B8583CDCFF0909802B501641BE8
:10423000750BAB01F110F4CE483C5105C8F6FE2CCD
:10424000E110DCCFC8010E94DE1992CF1F93CF93FB
:10425000DF93CDB7DEB767970FB6F894DEBF0FBE1A
:10426000CDBF4B8B5C8B962F6D8B7E8B8F8B6111B3
:10427000109263021A8A85E0FE017396DE011D9694
:1042800001900D928A95E1F79F8786E0FE013D96A9
:10429000DE01179601900D928A95E1F7CE010796FF
:1042A0000E94C41F882389F016E0809165029091D6
:1042B0006402891349C067960FB6F894DEBF0FBE3B
:1042C000CDBFDF91CF911F91089586E0FE01379613
:1042D000DE01119601900D928A95E1F78F81988504
:1042E00020916402409165026A857B85672BE1F22B
:1042F00089238F3FC9F230E0C90101968770992761
:104300004817190671F40E94051410926402109265
:10431000650286E0E6E9F2E0DF011D928A95E9F7A1
:10432000C3CF96E0929FD001939FB00D1124AA595C
:10433000BD4FFE01319601900D929A95E1F7809361
:1043400064020E94F507B0CF819FC00111248A59F1
:104350009D4F0E94C41F882309F4ADCF8091650250
:1043600090E0019687709927809365029ECF78949C
:104370001F921FB61F9211248F939F93AF93BF93E9
:104380008091410290914202A0914302B091440277
:104390000196A11DB11D8093410290934202A0930A
:1043A0004302B0934402BF91AF919F918F911F90B0
:1043B0001FBE1F901895CDB7DEB7A4970FB6F8941F
:1043C000DEBF0FBECDBF84B7877F84BF0FB6F89422
:1043D000A8958091600088618093600010926000D1
:1043E0000FBE80E890E00FB6F89480936100909340
:1043F00061000FBE85B7806885BF85B7806885BFBF
:104400008BE69AE09093B1018093B0010E944A0B31
:104410000E94F20B8091E20084608093E200789425
:1044200080911F02882399F08091E9001091EC009F
:104430001795112717958F70182B1092E90080910E
:10444000E80083FD0E941A141F701093E90082E0B7
:1044500084BD93E095BD9AEF97BD80936E0080EF89
:104460000E94850781EF0E94850784EF0E948507DF
:1044700085EF0E94850786EF0E94850783E30E94EF
:10448000850782E30E94850781E30E94850787EF05
:104490000E94850785E0E0EBF4E0DF01282F1D9204
:1044A0002A95E9F7EBEAF4E0DF011D928A95E9F736
:1044B00090E080E00E941D338A3E9E4F11F00E94E2
:1044C000DB1682E090E00E941533809318020E9470
:1044D00051139093B6048093B5040E94E218EFE361
:1044E000FCE93197F1F700C000000E94E2188091CA
:1044F000AB0480FF17C06FEF83E290E00E9423338C
:104500006FEF84E290E00E9423336FEF85E290E04A
:104510000E9423336FEF7FEF90E080E00E944133F1
:104520000E945E1083E090E00E941533282F30E057
:1045300050E040E029A33AA34BA35CA3CA01B90110
:104540000E94A30983E290E00E941533813209F0B2
:1045500024C684E290E00E941533873009F01DC61E
:1045600085E290E00E941533823109F016C60E9460
:10457000D6189093EC018093EB010E94D61890938B
:10458000EF018093EE011092A20280E88093A302D3
:104590000E940E2A6DE070E082EF98E00E944617BC
:1045A000892B89F58091A20263E070E081FD45C00E
:1045B0008FEE98E00E944617892B29F56DE070E098
:1045C0008FED98E00E944617892BE9F40E946D0A4E
:1045D00069A37AA38BA39CA3DC01CB01805A9541EC
:1045E000AF4FBF4F8093110290931202A09313021A
:1045F000B09314020E94F01381E08093160280931E
:1046000015021092100257985F9A56985E9A89B1D7
:1046100099B196FB992790F9990F881F8827881FD1
:10462000892B8093EA0187E091E09093A102809327
:10463000A00244244394512C99C28CEE98E0BACF46
:1046400080911F02843039F180E00E943C07109273
:10465000450248E150E060E40FB6F894A895409315
:1046600060000FBE6093600083B7817F846083BF6A
:1046700083B7816083BF7894889583B78E7F83BF2B
:104680000FB6F894A89580916000886180936000CF
:10469000109260000FBE80911E02882361F00E947C
:1046A000E218EBEAF4E08191811161C580EB94E0BE
:1046B0008E179F07C1F780911F02853009F4C0CF84
:1046C0000E9405140E94BD070E943C0756C29F5FCE
:1046D000FF0C943009F068C20F5F1F4F05301105C1
:1046E00009F057C28FEF89838A831B820E94D618F4
:1046F0008160782F9D838C8349815A816B81892FBA
:104700000E9426216EC20E94800FC8010E9480096B
:10471000ABC280910805813019F40E94360AA4C208
:104720008111A2C281E00E94B3069EC20E94800F46
:10473000C8010E948009BBC280910805813019F42C
:104740000E94E809B4C28111B2C20E94B306AFC28E
:10475000833049F08FEF98E000C388E099E0FDC214
:1047600085E099E0FAC282E099E0F7C289E199E038
:104770000AC384E199E007C3113009F0D1C00E9457
:104780008D1880910805813009F028C380915E0260
:1047900090915F02A0916002B091610289A39AA3F7
:1047A000ABA3BCA3BC01CD010E94F106182F0E944F
:1047B000B507113009F076C060E088500E949E076E
:1047C000809112018D3209F453C040F48A3209F409
:1047D0005EC08B32E1F18CE699E007C08E3669F05D
:1047E00048F48F32C1F787E599E00E947F1889E687
:1047F00099E053C08257823070F782E00E94B70977
:104800000E94B50721ED34E0D9010D900020E9F7B1
:104810009D01225D344062E0821B0E949E0781ED73
:1048200094E00E9467180E94B50724EC34E0F90177
:1048300001900020E9F79F01255C344063E0821B72
:104840000E949E0784EC94E00E946718C7C28CE621
:1048500099E00E947F1889E699E00E947F1886E619
:1048600099E00E947F1883E699E00E947F18C8CFE4
:104870008CE699E00E947F1889E699E00E947F18F3
:1048800080E699E00E947F188DE599E0EECF8CE6F6
:1048900099E00E947F188AE599E00E947F1886E6D9
:1048A00099E0F0CF123009F0ABCF60E086500E9463
:1048B0009E07809112018E3661F168F48A5286302B
:1048C00038F49BE201C096958A95EAF790FD12C0F4
:1048D00084E599E020C0823789F08337C9F784E501
:1048E00099E00E947F1881E599E00E947F188EE48C
:1048F00099E0BBCF82E00E94010A82CF84E599E073
:104900000E947F188BE499E00E947F1888E499E068
:10491000ACCF85E499E00E947F188BE499E0E5CF65
:10492000123009F05BC280911502882309F456C247
:104930000E94751753C22091A6023091A702C901A7
:10494000885A9240285A30402130324038F120E0D5
:1049500032E0281B390B4091A4025091A5026FE66A
:10496000C62E69E0D62EDC01A855BD4F280F391F91
:1049700082179307B0F05093A5024093A402809150
:10498000EB019091EC010E948D0A9C0191E0293B82
:104990003B4008F490E09093ED0120C220E032E02B
:1049A000DACFF60114916D911617A1F0BD01615097
:1049B0007109FB011083BC0105E0769567950A95A6
:1049C000E1F7F20102C0EE0FFF1F6A95E2F7BF01A7
:1049D0004E2B572B0196FFEFCF1ADF0AC9CF91E07C
:1049E000833009F090E0892F880F16C28F5F27C2AD
:1049F000880F880F880F37E0380F20E093E03EC221
:104A0000E0EFF1E080E2DF011D928A95E9F7EBE348
:104A1000F1E0FAA3E9A387E391E077E0872EE9A12B
:104A2000FAA1A191FAA3E9A3FC012191CF01240FDE
:104A3000352F311DB90168557D4F1B01EA2FF0E07C
:104A4000E051FE4F30E020E0682C621A942C022ED8
:104A500001C0990C0A94EAF78101A12CD801BD90FC
:104A60008D01B920662D6A196770762E062E000C0E
:104A7000770BBB2D01C0BB0F7A94EAF77195619556
:104A800071096770772701C0B6946A95EAF7BB2A67
:104A900060816B296083A39468E0A612DFCF2F5F4B
:104AA0003F4F31962830310579F6AFE3B1E0E9A107
:104AB000FAA1AE17BF0709F0B2CF04E610E020E27A
:104AC00030E040EF51E0FDC18091F100D8018D93BD
:104AD0008D01B1E0EB1AF10809F457C28091E800AA
:104AE00085FDF2CF8091E8008B778093E8000E94EB
:104AF000190B882399F349C21A8289E08B8312C06B
:104B00008A81823009F462C3833009F450C2813053
:104B100009F06BC20E946D0A0E94682E6B837C8331
:104B20008D839E8380911F02843001F58091E9007E
:104B30001091EC001795112717958F70182B82E0B4
:104B40008093E9008091E80080FF0DC050E040E0D4
:104B500060E270E0CE0101960E94690B8091E8004E
:104B60008E778093E8001F701093E90080911F02F8
:104B700000E112E1853009F49ECD0E94E218E82E92
:104B800081110E946D0AABEAB4E0E9E1F2E010E0C5
:104B900000E0302F8D919191981709F49DCD292F28
:104BA000282790E0FF24F394422F4F2109F48FCD62
:104BB00099833A838F2191E009F490E09B830E94CE
:104BC000D6188160782F9D838C8349815A816B81AF
:104BD000892F0E942621F801E75EFD4F80818F25F5
:104BE0008083E091EA01EE0FEE0FE093EA0129B134
:104BF00089B190E035E0969587953A95E1F7827016
:104C0000992730E0220F232F221F330B822BE82B12
:104C1000E093EA01EF70F0E0E95DFE4F8081909152
:104C2000E901890F8093E901F12C8430FCF0809137
:104C3000E8018F5F8093E80120915E0230915F026E
:104C4000409160025091610229A33AA34BA35CA357
:104C5000CA01B9010E94F10681115BCD0E94360A9A
:104C60008C01009709F04FCDFF24F3948091E90166
:104C70008D3FFCF48091E80181508093E8014091E0
:104C80005E0250915F02609160027091610249A3DF
:104C90005AA36BA37CA3CB01BA010E94F106811138
:104CA0004BCD0E94E8098C01009709F03FCDFF240D
:104CB000F3948091E901082E000C990B64E070E0F8
:104CC0000E944E2E8093E901F1100E946D0A80919E
:104CD0001602882309F42CC160E080E00E949E0740
:104CE0008091EE019091EF010E948D0A829708F465
:104CF00075C00E94F0130E94D6189093EF01809324
:104D0000EE018091ED01882309F415CE109108057C
:104D1000111132CD0E948D180E94B50760E08F50AE
:104D20000E949E078EE099E00E947F1860915E02CB
:104D300070915F02809160029091610269A37AA3F1
:104D40008BA39CA30E94F106823009F409CD08F0E0
:104D5000FFCC811102CD8BE099E00E947F180E9468
:104D6000B50760E087500E949E0783E299E00E94A9
:104D70007F1880910705813009F4F8CC823009F45E
:104D8000F8CC8EE199E00E947F18E091A002F091AA
:104D9000A102309729F00190F081E02D0995182F9C
:104DA0000E94B50763E08C500E949E078BE399E058
:104DB00010FF02C080E499E00E947F1881E399E02F
:104DC00011FF02C086E399E00E947F1887E299E014
:104DD00012FF02C08CE299E00E947F1880905E0270
:104DE00090905F02A0906002B0906102C501B40192
:104DF0000E94F106813081F0823009F0F0CD80E030
:104E000081149104A104B10439F0D501C401B6950F
:104E1000A7959795879581708093080580911602D4
:104E2000882309F462C02091A4023091A5022115C3
:104E3000310509F45AC080911002811156C0082F23
:104E400010E06201082E02C0CC0CDD1C0A94E2F7CF
:104E5000A9014C215D21452B09F4C8CD2091A20266
:104E6000922F917020FDC4CD9801369527953695E7
:104E700027958295880F80763FE1380F8093020155
:104E800020930501309303019093060124E630E05E
:104E900047E050E060E071E088E70E949F2A892B9C
:104EA00021F5A801E5E0440F551FEA95E1F780914F
:104EB000A20280FDA5CD48555D4F04E610E020E23A
:104EC00030E060E488E70E94CC2A892B71F40E94CC
:104ED0008817C094D0948091A4029091A502C82212
:104EE000D922D092A502C092A402809115028823F3
:104EF000F9F00E946D0A69A37AA38BA39CA3809109
:104F0000110290911202A0911302B091140229A1F2
:104F10003AA14BA15CA1281B390B4A0B5B0BDA01B0
:104F2000C9018F3F9F4FAF4FBF4710F40E947517C5
:104F3000E11001C0F1100E9488170E94BD079091F6
:104F40001702891731F00E94BD07809317020E9453
:104F50003C0780911F02843009F008CE83E08093E3
:104F6000E9008091E80082FF01CE8091E80090E0A6
:104F700085FF0CC00E94190B60E2E62EF12C8E0119
:104F80000F5F1F4F882309F4A9CD91E08091E800BD
:104F90008B778093E800992309F4E8CDE981E1500B
:104FA000E33118F5F0E0E153FC4C0C94622E85E0FF
:104FB000EBEAF4E0DE01139601900D928A95E1F799
:104FC000B1CD8A81823089F42B813C814D815E8113
:104FD00029A33AA34BA35CA3CA01B9010E94682E7E
:104FE00086E290E00E9423339DCD8FEF89839ACD96
:104FF0004C816B818A810E94FF109827892798270E
:105000009E838D838FCD0D811E8110270127102750
:105010008A81EB8038E0E39E7001112448E2849F8E
:10502000E00CF11C11248C8190E0880F991FE80E90
:10503000F91E612FC70187960E942333602FC70195
:105040008896D0CF0E945F136DCD80E18A836ACDB0
:1050500083E08A8389E352CDCA80DB80DC24CD24BF
:10506000DC248C817601E80EF11C8E010B5F1F4F52
:10507000C60189539F4FCE14DF0409F453CD59E381
:10508000C51653E0D50648F40E941533D8018D9318
:105090008D01BFEFCB1ADB0AEBCF80E0F7CF0A819F
:1050A0001B81102701271027FE0131966F018C818B
:1050B0007F01E80EF11CC80189539F4FCE14DF0415
:1050C00009F430CD0933F3E01F0728F4D601149614
:1050D0006C910E9423330F5F1F4FBFEFCB1ADB0A87
:1050E000EACF0E94C6131ECD84E0B0CFCA80DB8019
:1050F000DC24CD24DC248C817601E80EF11C8E01A9
:105100000B5F1F4FC6018796EC14FD0409F40ACD0E
:10511000E0EACE16D10448F40E941533D8018D93ED
:105120008D01BFEFCB1ADB0AEDCF80E0F7CF0A810C
:105130001B81102701271027FE0131966F018C81FA
:105140007F01E80EF11CC8018796EC14FD0409F4F8
:10515000E9CC003A110528F4D60114966C910E940E
:1051600023330F5F1F4FBFEFCB1ADB0AECCF09BD14
:1051700019BD09B400FEFDCF8091D8008F7D8093CA
:10518000D8008091E00082608093E0008091E00090
:1051900081FDFCCF0E9405148ECA60E086E290E09B
:1051A0000E9423330E945F130E94C61361E283E2D0
:1051B00090E00E94233367E084E290E00E94233372
:1051C00062E185E290E00E942333D1C986E290E05B
:1051D0000E9415331B821C821D828E83A3CC1F92DA
:1051E0000F920FB60F9211242F933F934F935F931B
:1051F0006F937F938F939F93AF93BF93EF93FF939F
:105200008091E10082FF09C08091E20082FF05C029
:105210008091E1008B7F8093E1008091DA0080FF34
:1052200024C08091D80080FF20C08091DA008E7F5A
:105230008093DA008091D90080FF99C080E189BD18
:1052400082E189BD09B400FEFDCF81E080931F0299
:105250008091DF01811109C00E944A0B0E94F20B6C
:105260008091E20084608093E2008091E10080FF01
:1052700017C08091E20080FF13C08091E2008E7F12
:105280008093E2008091E20080618093E20080914F
:10529000D80080628093D80019BC85E080931F02FB
:1052A0008091E10084FF27C08091E20084FF23C049
:1052B00080E189BD82E189BD09B400FEFDCF809106
:1052C000D8008F7D8093D8008091E1008F7E8093FD
:1052D000E1008091E2008F7E8093E2008091E20005
:1052E00081608093E2008091DE01882309F445C04B
:1052F00084E080931F028091E10083FF27C08091AA
:10530000E20083FF23C08091E100877F8093E1006A
:1053100082E080931F021092DE018091E1008E7F77
:105320008093E1008091E2008E7F8093E200809183
:10533000E20080618093E20042E060E080E00E9451
:10534000C20B8091F00088608093F000FF91EF9194
:10535000BF91AF919F918F917F916F915F914F918D
:105360003F912F910F900FBE0F901F90189519BC71
:1053700010921F021092DF0178CF8091E30087FD29
:1053800002C081E0B6CF83E0B4CF1F920F920FB678
:105390000F921124FF920F931F932F933F934F93DC
:1053A0005F936F937F938F939F93AF93BF93CF93AD
:1053B000DF93EF93FF9309EE10E0F8018081C09135
:1053C000EC00C795CC27C7958F70FC2EF82A108269
:1053D000C0EFD0E08881877F888378940E941A1478
:1053E000F8011082888188608883CF2DCF70C083B8
:1053F000FF91EF91DF91CF91BF91AF919F918F91ED
:105400007F916F915F914F913F912F911F910F91DC
:10541000FF900F900FBE0F901F9018951092B9003B
:105420008CE08093B8000895EF92FF920F931F9342
:10543000CF93DF93182FEB011092BC0084EA809386
:10544000BC000E94D6187C018091BC0087FF27C059
:105450008091B900887F883029F08091B900887FD9
:105460008031D9F51093BB0084E88093BC000E9482
:10547000D6188C018091BC0087FF24C02091B90010
:10548000287F90E080E02831B1F081E090E0203486
:1054900011F490E080E09195819591090CC0CF3F87
:1054A000DC0791F20E94D6188E199F098C179D0770
:1054B00058F28EEF9FEFDF91CF911F910F91FF90E8
:1054C000EF900895CF3FDC07A9F20E94D618801B09
:1054D000910B8C179D0770F2ECCF8FEF9FEFEBCF06
:1054E0000F931F93CF93DF93EB018093BB0084E86E
:1054F0008093BC000E94D6188C018091BC0087FF6D
:1055000011C02091B900287F81E090E0283211F489
:1055100090E080E0919581959109DF91CF911F9165
:105520000F910895CF3FDC0741F30E94D618801BEE
:10553000910B8C179D0708F38EEF9FEFEECFCF9264
:10554000DF92EF92FF920F931F93CF93DF936B0144
:105550008A01F22EE32E622F732F0E94142AAC01CF
:10556000E6010C0D1D1DC017D10711F057FF0DC02E
:1055700084E98093BC00CA01DF91CF911F910F9104
:10558000FF90EF90DF90CF9008956F2D7E2D899141
:105590000E94702AAC01E7CFCF92DF92EF92FF9288
:1055A0000F931F93CF93DF93C62F6A017901B80140
:1055B0000E94142A9C0197FD0DC0B8018C2F0E94F7
:1055C000702A9C01E601EC0CFD1CCE15DF0511F0E4
:1055D00037FF0DC084E98093BC00C901DF91CF91F2
:1055E0001F910F91FF90EF90DF90CF900895B80139
:1055F00089910E94702A9C01E8CF84E98093BC00C5
:1056000008950E94412B90F09F3748F4911116F4B1
:105610000C945A2B60E070E080E89FE3089526F038
:105620001B16611D711D811D0C94182B0C94332BBE
:10563000882371F4772321F09850872B762F07C0A9
:10564000662311F499270DC09051862B70E060E01D
:105650002AF09A95660F771F881FDAF7880F9695BC
:10566000879597F908959F3F31F0915020F48795E1
:1056700077956795B795880F911D9695879597F9BA
:1056800008950E94732DA0F0BEE7B91788F4BB27D8
:105690009F3860F41616B11D672F782F8827985F02
:1056A000F7CF869577956795B11D93959639C8F391
:1056B0000895E894BB2766277727CB0197F90895CB
:1056C0000E94702B29ED3BE54EED5EE30C94B82B68
:1056D00016F00C94332B0C941B2D68940C94152D00
:1056E0000E94732DA8F39923C1F3AEF3DF93CF93F8
:1056F0001F930F93FF92C92FDD2788232AF021974C
:10570000660F771F881FDAF720E030E040E85FEB94
:105710009FE3883920F0803E38F021968F770E94F1
:105720006C2CECEAF0E004C00E946C2CE9EDF0E097
:105730000E94252D8B01BE01EC01FB2E6F577109D4
:105740007595771F880B990B0E94DA2C28E132E7B8
:1057500041E35FE30E94CB2BAF2D9801AE01FF9098
:105760000F911F91CF91DF910E94832C0C945A2DA1
:105770000E94CB2B0C945A2D0E944C2D38F00E9485
:10578000532D20F0952311F00C94152D0C941B2D06
:1057900011240C945A2B0E946B2D70F3959FC1F32A
:1057A000950F50E0551F629FF001729FBB27F00DCF
:1057B000B11D639FAA27F00DB11DAA1F649F662724
:1057C000B00DA11D661F829F2227B00DA11D621F73
:1057D000739FB00DA11D621F839FA00D611D221F2D
:1057E000749F3327A00D611D231F849F600D211D11
:1057F000822F762F6A2F11249F5750409AF0F1F094
:1058000088234AF0EE0FFF1FBB1F661F771F881FFC
:1058100091505040A9F79E3F510580F00C94152DF2
:105820000C945A2B5F3FE4F3983ED4F3869577951A
:105830006795B795F795E7959F5FC1F7FE2B880FA2
:10584000911D9695879597F9089519F416F40C947F
:105850001B2D0C94332B0E94732DB8F39923C9F39D
:10586000B6F39F57550B87FF0E941E2D0024A0E61C
:1058700040EA900180585695979528F4805C660F11
:10588000771F881F20F026173707480730F4621B60
:10589000730B840B202931294A2BA6951794079462
:1058A000202531254A2758F7660F771F881F20F0DB
:1058B00026173707480730F4620B730B840B200D53
:1058C000311D411DA09581F7B901842F9158880F92
:1058D0009695879508955058BB27AA270E94832C38
:1058E0000C945A2D0E944C2D38F00E94532D20F01C
:1058F00039F49F3F19F426F40C941B2D0EF4E09517
:10590000E7FB0C94152DE92F0E946B2D58F3BA1765
:10591000620773078407950720F079F4A6F50C94C5
:10592000592B0EF4E0950B2EBA2FA02D0B01B901C7
:1059300090010C01CA01A0011124FF27591B99F005
:10594000593F50F4503E68F11A16F040A22F232F11
:10595000342F4427585FF3CF469537952795A79561
:10596000F0405395C9F77EF41F16BA0B620B730B08
:10597000840BBAF09150A1F0FF0FBB1F661F771F79
:10598000881FC2F70EC0BA0F621F731F841F48F42E
:10599000879577956795B795F7959E3F08F0B0CFB7
:1059A0009395880F08F09927EE0F9795879508959E
:1059B000E89409C097FB3EF49095809570956195A9
:1059C0007F4F8F4F9F4F9923A9F0F92F96E9BB275F
:1059D0009395F695879577956795B795F111F8CFDB
:1059E000FAF4BB0F11F460FF1BC06F5F7F4F8F4F46
:1059F0009F4F16C0882311F096E911C0772321F03C
:105A00009EE8872F762F05C0662371F096E8862FD3
:105A100070E060E02AF09A95660F771F881FDAF72A
:105A2000880F9695879597F9089597F99F6780E86D
:105A300070E060E008959FEF80EC08959150504031
:105A4000660F771F881FD2F70895DF93CF931F93B8
:105A50000F93FF92EF92DF927B018C01689406C056
:105A6000DA2EEF010E94CB2BFE01E894A59125913F
:105A7000359145915591A6F3EF010E94832CFE01CB
:105A80009701A801DA9469F7DF90EF90FF900F91EA
:105A90001F91CF91DF91089500240A9416161706DE
:105AA00018060906089500240A941216130614060F
:105AB00005060895092E0394000C11F4882352F072
:105AC000BB0F40F4BF2B11F460FF04C06F5F7F4F2A
:105AD0008F4F9F4F089557FD9058440F551F59F011
